:020000040800F2
:100000000050002025280008352500083D2500085F
:10001000452500084D250008552500080000000072
:100020000000000000000000000000005D25000846
:1000300069250008000000007525000881250008DA
:100040006D2800086D2800086D2800086D2800083C
:100050006D2800086D2800088D2500089B250008E4
:100060006D280008A9250008B72500086D2800089C
:100070006D2800086D2800086D2800086D2800080C
:100080006D2800086D280008C52500086D280008A7
:100090006D2800086D2800086D2800086D280008EC
:1000A0006D2800086D2800086D2800086D280008DC
:1000B000D9250008ED2500086D2800086D280008E6
:1000C0006D2800086D2800086D2800086D280008BC
:1000D0006D280008012600086D2800086D2800081A
:1000E0006D2800086D2800086D2800080000000039
:1000F0000000000000000000000000000000000000
:0C01000000000000000000005FF808F1A3
:1001100010B5054C237833B9044B13B10448AFF341
:1001200000800123237010BD70000020000000003B
:10013000A890000808B5034B1BB103490348AFF36F
:10014000008008BD0000000074000020A890000896
:1001500081F0004102E000BF83F0004330B54FEA78
:1001600041044FEA430594EA050F08BF90EA020FE5
:100170001FBF54EA000C55EA020C7FEA645C7FEA78
:10018000655C00F0E2804FEA5454D4EB5555B8BF9B
:100190006D420CDD2C4480EA020281EA030382EA0C
:1001A000000083EA010180EA020281EA0303362D9E
:1001B00088BF30BD11F0004F4FEA01314FF4801C71
:1001C0004CEA113102D0404261EB410113F0004F83
:1001D0004FEA03334CEA133302D0524263EB43033A
:1001E00094EA050F00F0A780A4F10104D5F1200ED8
:1001F0000DDB02FA0EFC22FA05F2801841F1000133
:1002000003FA0EF2801843FA05F359410EE0A5F106
:1002100020050EF1200E012A03FA0EFC28BF4CF037
:10022000020C43FA05F3C01851EBE37101F00045ED
:1002300007D54FF0000EDCF1000C7EEB00006EEBFA
:100240000101B1F5801F1BD3B1F5001F0CD3490884
:100250005FEA30004FEA3C0C04F101044FEA4452DB
:1002600012F5800F80F09A80BCF1004F08BF5FEA62
:10027000500C50F1000041EB045141EA050130BD42
:100280005FEA4C0C404141EB0101013C28BFB1F554
:10029000801FE9D291F0000F04BF01460020B1FA9F
:1002A00081F308BF2033A3F10B03B3F120020CDA72
:1002B0000C3208DD02F1140CC2F10C0201FA0CF050
:1002C00021FA02F10CE002F11402D8BFC2F1200CB5
:1002D00001FA02F120FA0CFCDCBF41EA0C0190406B
:1002E000E41AA2BF01EB0451294330BD6FEA0404B4
:1002F0001F3C1CDA0C340EDC04F11404C4F120029F
:1003000020FA04F001FA02F340EA030021FA04F3B0
:1003100045EA030130BDC4F10C04C4F1200220FA07
:1003200002F001FA04F340EA0300294630BD21FA45
:1003300004F0294630BD94F0000F83F4801306BF0B
:1003400081F480110134013D4EE77FEA645C18BFFF
:100350007FEA655C29D094EA050F08BF90EA020F96
:1003600005D054EA000C04BF1946104630BD91EA8E
:10037000030F1EBF0021002030BD5FEA545C05D191
:100380004000494128BF41F0004130BD14F58004D0
:100390003CBF01F5801130BD01F0004545F0FE4144
:1003A00041F470014FF0000030BD7FEA645C1ABF79
:1003B000194610467FEA655C1CBF0B46024650EAB0
:1003C000013406BF52EA033591EA030F41F40021DC
:1003D00030BD00BF90F0000F04BF0021704730B562
:1003E0004FF4806404F132044FF000054FF0000137
:1003F00050E700BF90F0000F04BF0021704730B5F8
:100400004FF4806404F1320410F0004548BF4042CC
:100410004FF000013EE700BF42004FEAE2014FEA21
:1004200031014FEA02701FBF12F07F4393F07F4FFC
:1004300081F06051704732F07F4208BF704793F0FF
:100440007F4F04BF41F40021704730B54FF4607412
:1004500001F0004521F000411CE700BF50EA010215
:1004600008BF704730B54FF000050AE050EA0102BE
:1004700008BF704730B511F0004502D5404261EB2E
:1004800041014FF4806404F132045FEA915C3FF46F
:10049000D8AE4FF003025FEADC0C18BF03325FEA0C
:1004A000DC0C18BF033202EBDC02C2F1200300FABD
:1004B00003FC20FA02F001FA03FE40EA0E0021FAE2
:1004C00002F11444BDE600BF70B54FF0FF0C4CF4D0
:1004D000E06C1CEA11541DBF1CEA135594EA0C0F82
:1004E00095EA0C0F00F0DEF82C4481EA030621EABD
:1004F0004C5123EA4C5350EA013518BF52EA0335F8
:1005000041F4801143F4801338D0A0FB02CE4FF0A9
:100510000005E1FB02E506F00042E0FB03E54FF0D9
:100520000006E1FB03569CF0000F18BF4EF0010ED1
:10053000A4F1FF04B6F5007F64F5407404D25FEACD
:100540004E0E6D4146EB060642EAC62141EA555180
:100550004FEAC52040EA5E504FEACE2EB4F1FD0CC2
:1005600088BFBCF5E06F1ED8BEF1004F08BF5FEA40
:10057000500E50F1000041EB045170BD06F00046F2
:1005800046EA010140EA020081EA0301B4EB5C049F
:10059000C2BFD4EB0C0541EA045170BD41F4801197
:1005A0004FF0000E013C00F3AB8014F1360FDEBFBC
:1005B000002001F0004170BDC4F10004203C35DA98
:1005C0000C341BDC04F11404C4F1200500FA05F31B
:1005D00020FA04F001FA05F240EA020001F00042BC
:1005E00021F0004110EBD37021FA04F642EB060132
:1005F0005EEA430E08BF20EAD37070BDC4F10C045C
:10060000C4F1200500FA04F320FA05F001FA04F21F
:1006100040EA020001F0004110EBD37041F100010B
:100620005EEA430E08BF20EAD37070BDC4F1200516
:1006300000FA05F24EEA020E20FA04F301FA05F27E
:1006400043EA020321FA04F001F0004121FA04F226
:1006500020EA020000EBD3705EEA430E08BF20EAF6
:10066000D37070BD94F0000F0FD101F00046400030
:1006700041EB010111F4801F08BF013CF7D041EAB2
:10068000060195F0000F18BF704703F000465200B6
:1006900043EB030313F4801F08BF013DF7D043EA87
:1006A0000603704794EA0C0F0CEA135518BF95EA3D
:1006B0000C0F0CD050EA410618BF52EA4306D1D1C4
:1006C00081EA030101F000414FF0000070BD50EAE3
:1006D000410606BF1046194652EA430619D094EA6D
:1006E0000C0F02D150EA013613D195EA0C0F05D157
:1006F00052EA03361CBF104619460AD181EA0301AB
:1007000001F0004141F0FE4141F470014FF0000062
:1007100070BD41F0FE4141F4780170BD70B54FF0FD
:10072000FF0C4CF4E06C1CEA11541DBF1CEA13557D
:1007300094EA0C0F95EA0C0F00F0A7F8A4EB05045F
:1007400081EA030E52EA03354FEA013100F0888056
:100750004FEA03334FF0805545EA131343EA12631F
:100760004FEA022245EA111545EA10654FEA0026D4
:100770000EF000419D4208BF964244F1FD0404F58D
:10078000407402D25B084FEA3202B61A65EB0305E9
:100790005B084FEA32024FF480104FF4002CB6EBA6
:1007A000020E75EB030E22BFB61A754640EA0C0026
:1007B0005B084FEA3202B6EB020E75EB030E22BF66
:1007C000B61A754640EA5C005B084FEA3202B6EBA7
:1007D000020E75EB030E22BFB61A754640EA9C0066
:1007E0005B084FEA3202B6EB020E75EB030E22BF36
:1007F000B61A754640EADC0055EA060E18D04FEAF4
:10080000051545EA16754FEA06164FEAC30343EA93
:1008100052734FEAC2025FEA1C1CC0D111F4801F60
:100820000BD141EA00014FF000004FF0004CB6E759
:1008300011F4801F04BF01430020B4F1FD0C88BFF8
:10084000BCF5E06F3FF6AFAEB5EB030C04BFB6EB03
:10085000020C5FEA500C50F1000041EB045170BDF6
:100860000EF0004E4EEA113114EB5C04C2BFD4EB23
:100870000C0541EA045170BD41F480114FF0000EA7
:10088000013C90E645EA060E8DE60CEA135594EA23
:100890000C0F08BF95EA0C0F3FF43BAF94EA0C0F26
:1008A0000AD150EA01347FF434AF95EA0C0F7FF49B
:1008B00025AF104619462CE795EA0C0F06D152EAEF
:1008C00003353FF4FDAE1046194622E750EA4106D3
:1008D00018BF52EA43067FF4C5AE50EA41047FF4E4
:1008E0000DAF52EA43057FF4EBAE12E74FF0FF3C49
:1008F00006E000BF4FF0010C02E000BF4FF0010C1A
:100900004DF804CD4FEA410C7FEA6C5C4FEA430C92
:1009100018BF7FEA6C5C1BD001B050EA410C0CBFE1
:1009200052EA430C91EA030F02BF90EA020F002043
:10093000704710F1000F91EA030F58BF994208BFAA
:1009400090422CBFD8176FEAE37040F00100704767
:100950004FEA410C7FEA6C5C02D150EA013C07D1BE
:100960004FEA430C7FEA6C5CD6D152EA033CD3D009
:100970005DF8040B704700BF8446104662468C4603
:100980001946634600E000BF01B5FFF7B7FF002836
:1009900048BF10F1000F01BD4DF808EDFFF7F4FF5F
:1009A0000CBF012000205DF808FB00BF4DF808EDEA
:1009B000FFF7EAFF34BF012000205DF808FB00BF0D
:1009C0004DF808EDFFF7E0FF94BF012000205DF82F
:1009D00008FB00BF4DF808EDFFF7CEFF94BF0120E4
:1009E00000205DF808FB00BF4DF808EDFFF7C4FFDD
:1009F00034BF012000205DF808FB00BF4FEA410C26
:100A00007FEA6C5C02D150EA013C0AD14FEA430C08
:100A10007FEA6C5C02D152EA033C02D14FF0000045
:100A200070474FF0010070474FEA410212F5001283
:100A300015D211D56FF47873B3EB625212D94FEA25
:100A4000C12343F0004343EA505311F0004F23FA0F
:100A500002F018BF404270474FF00000704750EA64
:100A6000013005D111F0004008BF6FF00040704721
:100A70004FF00000704700BF4FEA4102B2F1E0437F
:100A800024BFB3F5001CDCF1FE5C0DD901F0004C75
:100A90004FEAC0024CEA5070B2F1004F40EB8300C5
:100AA00008BF20F00100704711F0804F21D113F1F1
:100AB0003872BCBF01F00040704741F480114FEA2A
:100AC0005252C2F11802C2F1200C10FA0CF320FAB3
:100AD00002F018BF40F001004FEAC1234FEAD323D0
:100AE00003FA0CFC40EA0C0023FA02F34FEA43033A
:100AF000CCE77FEA625307D150EA01331EBF4FF0C3
:100B0000FE4040F44000704701F0004040F0FE40DD
:100B100040F40000704700BF80F0004002E000BFDA
:100B200081F0004142001FBF5FEA410392EA030FD8
:100B30007FEA226C7FEA236C6AD04FEA1262D2EB22
:100B40001363C1BFD218414048404140B8BF5B4227
:100B5000192B88BF704710F0004F40F4000020F0C0
:100B60007F4018BF404211F0004F41F4000121F0D6
:100B70007F4118BF494292EA030F3FD0A2F1010220
:100B800041FA03FC10EB0C00C3F1200301FA03F15E
:100B900000F0004302D5494260EB4000B0F5000F81
:100BA00013D3B0F1807F06D340084FEA310102F140
:100BB0000102FE2A51D2B1F1004F40EBC25008BFF2
:100BC00020F0010040EA03007047490040EB0000BC
:100BD000013A28BFB0F5000FEDD2B0FA80FCACF1BD
:100BE000080CB2EB0C0200FA0CF0AABF00EBC250EA
:100BF00052421843BCBFD0401843704792F0000FD8
:100C000081F4000106BF80F400000132013BB5E72A
:100C10004FEA41037FEA226C18BF7FEA236C21D0A0
:100C200092EA030F04D092F0000F08BF0846704705
:100C300090EA010F1CBF0020704712F07F4F04D1D3
:100C4000400028BF40F00040704712F100723CBFE6
:100C500000F50000704700F0004343F0FE4040F410
:100C6000000070477FEA226216BF08467FEA2363CE
:100C70000146420206BF5FEA412390EA010F40F4B9
:100C8000800070474FF0000304E000BF10F0004305
:100C900048BF40425FEA000C08BF704743F09643EC
:100CA00001464FF000001CE050EA010208BF704707
:100CB0004FF000030AE000BF50EA010208BF70478E
:100CC00011F0004302D5404261EB41015FEA010CA3
:100CD00002BF84460146002043F0B64308BFA3F19B
:100CE0008053A3F50003BCFA8CF2083AA3EBC2537D
:100CF00010DB01FA02FC634400FA02FCC2F120029C
:100D0000BCF1004F20FA02F243EB020008BF20F0D2
:100D10000100704702F1200201FA02FCC2F1200238
:100D200050EA4C0021FA02F243EB020008BF20EA2D
:100D3000DC70704780B588B004AF0346FB710023B8
:100D4000FB73FB799AB2642302930123019307F1A9
:100D50000F0300930123B421034803F0D5F8FB7B74
:100D600018461037BD4680BD1001002080B586B002
:100D700004AF03463960FB711346BB71FB799AB22D
:100D8000BB799BB26421029101933B6800930123DC
:100D9000B421034803F0B8F800BF0837BD4680BD52
:100DA0001001002080B586B004AF03460A46FB71EF
:100DB0001346BB71FB799AB264230293012301931A
:100DC000BB1D00930123B421034802F0A3FF00BF21
:100DD0000837BD4680BD00BF1001002080B586B039
:100DE00002AF00233B720023FB6026E00020FFF7E8
:100DF000A1FF03463B723B7A03F01003002B02D1A4
:100E00000023FB6019E0F423FB71FA1D4FF0FF3360
:100E100000930123B4210D4802F07EFE0020FFF76D
:100E200089FF03463B723B7A03F09003902B02D07C
:100E30000023FB6001E00123FB60FB68002BD5D0A1
:100E400000BF00BF1037BD4680BD00BF10010020AD
:100E500080B500AF00224FF40041054802F0E7FCE6
:100E600001224FF40041024802F0E1FC00BF80BDC6
:100E70000010014080B582B000AF0346FB71FB79E2
:100E80001B01FB71FB7919460120FFF78BFF00BFA7
:100E90000837BD4680BD80B584B000AF78600023C0
:100EA000BB600023FB6007F10803082219460220FB
:100EB000FFF75CFF3B7A1B021AB27B7A1BB213432B
:100EC0001BB29AB27B681A8000BF1037BD4680BD46
:100ED00080B582B000AF0120FFF72CFF0346FB7105
:100EE000FB7943F00803FB71FB7919460120FFF7FA
:100EF00059FF00BF0837BD4680BD000080B586B0F1
:100F000002AF0346FB71FB7923F00F03FB73FB7900
:100F10001B01BB73FB7B43F00C03DBB23B72FB7B1F
:100F200043F00803DBB27B72BB7B43F00C03DBB204
:100F3000BB72BB7B43F00803DBB2FB7207F1080214
:100F40006423009304234E21034802F0E5FD00BF13
:100F50001037BD4680BD00BFBC00002080B586B004
:100F600002AF0346FB71FB7923F00F03FB73FB79A0
:100F70001B01BB73FB7B43F00D03DBB23B72FB7BBE
:100F800043F00903DBB27B72BB7B43F00D03DBB2A2
:100F9000BB72BB7B43F00903DBB2FB7207F10802B3
:100FA0006423009304234E21034802F0B5FD00BFE3
:100FB0001037BD4680BD00BFBC00002080B582B0A8
:100FC00000AF786039607B68002B03D07B68012B11
:100FD00005D009E03B6843F080033B6004E03B68D8
:100FE00043F0C0033B6000BF3B68DBB21846FFF72D
:100FF00085FF00BF0837BD4680BD80B500AF3220F9
:1010000001F098FC3020FFF779FF052001F092FCF9
:101010003020FFF773FF012001F08CFC3020FFF738
:101020006DFF0A2001F086FC2020FFF767FF0A20F1
:1010300001F080FC2820FFF761FF012001F07AFC1D
:101040000820FFF75BFF012001F074FC0120FFF78F
:1010500055FF012001F06EFC012001F06BFC062021
:10106000FFF74CFF012001F065FC0C20FFF746FF65
:1010700000BF80BD80B582B000AF786006E07B68BD
:101080005A1C7A601B781846FFF768FF7B681B784C
:10109000002BF4D100BF00BF0837BD4680BD000063
:1010A00080B584B000AF0346FB710B46BB7113469D
:1010B0007B7107F10C0300210A461A800A469A70D8
:1010C000FB793B73BB797B737B79BB7307F10C03B3
:1010D00000221946084804F0D5FB0346002B01D036
:1010E00000F09AFF42F245320121034804F0DCFF90
:1010F00000BF1037BD4680BD6401002080B500AF41
:1011000000220349034804F055FC00BF80BD00BF26
:10111000800E002064010020B0B584B000AF78607C
:101120007868FFF779F902460B464FF00000224934
:10113000FFF712F802460B4614461D467868FFF783
:101140006BF902460B4620462946FFF7E7FA0246AE
:101150000B461046194602460B46FEF7FFFF0246B5
:101160000B4610461946FFF787FC0346FB60F868FC
:10117000FFF752F90EA3D3E9002307F041F84FF02F
:1011800000020E4BFFF7A0F902460B461046194627
:1011900007F0A4F802460B4610461946FFF744FC38
:1011A000034618461037BD46B0BD00BFAFF3008000
:1011B0008B6CE7FBA9F1F8BF000014400000594018
:1011C00080B582B000AF7860224B1B88B3F57A7F80
:1011D00013D8214B1B88192B0FD8786805F03CF8E1
:1011E0007B681B6841F27072DA627B6841F2707250
:1011F000DA60786804F0DEFF28E0164B1B88B3F550
:10120000FA6F03D2144B1B88312B0FD9786805F085
:1012100023F87B681B684FF47A72DA627B684FF4BC
:101220007A72DA60786804F0C5FF0FE0786805F03C
:1012300013F87B681B6840F6B832DA627B6840F6C8
:10124000B832DA60786804F0B5FF00BF00BF083735
:10125000BD4680BDA0020020AC02002080B582B057
:1012600000AF78607B681B68B3F1804F03D15348AF
:1012700001F05CFC9EE07B681B68514A934240F0A1
:1012800099805048FFF79CFF4F4B1B780133DAB22F
:101290004D4B1A704D4B00221A704B4B1B78012B93
:1012A00040F28880494B1B78002B40F08380464BEE
:1012B0001B78023BDAB2464B1A70FFF71FFF454B13
:1012C0001A78434B1B7819460B461B015B1A5B00CF
:1012D000053341490B441946104600F007FF3D4BCA
:1012E0005A783B4B1B7819460B461B015B1A5B0077
:1012F000073339490B441946104600F0F7FE354BC9
:101300009A78334B1B7819460B461B015B1A5B001E
:10131000093331490B441946104600F0E7FE2F4BC4
:101320001B881B0A9BB2DAB2294B1B7819460B4665
:101330001B015B1A5B000B3327490B44194610460F
:1013400000F0D4FE254B1B88DAB2214B1B781946DE
:101350000B461B015B1A5B000D331F490B441946FA
:10136000104600F0C3FE1E4B1B881B0A9BB2DAB26C
:10137000174B1B7819460B461B015B1A5B000F339A
:1013800015490B441946104600F0B0FE144B1B885B
:10139000DAB20F4B1B7819460B461B015B1A5B0038
:1013A00011330D490B441946104600F09FFE074BC0
:1013B00001221A7000BF0837BD4680BD8C00002096
:1013C00000040040C0010020C0020020C102002033
:1013D000BE020020800E0020C4020020AC020020CB
:1013E000A00200200000000080B582B000AF78604D
:1013F0007B681B684E4A934205D14E4801F04CFC75
:1014000003464D4A13604C4B1B681846FFF73AFCE5
:1014100003461846FFF700F843A3D3E90023FFF77C
:101420007DF902460B46104619464FF00002434B29
:10143000FFF74AF802460B4610461946FFF71CFB19
:1014400003463F4A13603E4B1B681846FFF764FE95
:1014500003469AB23B4B1A803A4B1B881A463A49CC
:101460003A4806F001FA04210120FFF7A7FD3848A9
:10147000FFF700FE04210120FFF7A0FD3348FFF72E
:10148000F9FD304B1B8842F20F7293420DD90821AF
:101490000120FFF793FD2F48FFF7ECFD0821012005
:1014A000FFF78CFD2C48FFF7E5FD2C48FFF7F3FC18
:1014B0002A4B1A882A4B1A80294B1B881A46224924
:1014C000284806F0D1F904210020FFF777FD2048D5
:1014D000FFF7D0FD04210020FFF770FD2148FFF742
:1014E000C9FD1F4B1B8842F20F7293420DD9082190
:1014F0000020FFF763FD1748FFF7BCFD082100201F
:10150000FFF75CFD1848FFF7B5FD184B1B78012B62
:1015100001D101F045F91648FFF752FE00BF083728
:10152000BD4680BDAFF300800000000000FEAF406C
:10153000002401408C000020A40200200000144080
:10154000A8020020AC020020C0900008B0020020D9
:10155000C4900008CC900008D89000089E0200209B
:10156000A0020020B8020020E49000080100002042
:101570007801002080B582B000AF0346FB80FB8875
:10158000102B1BD100BF10212D4802F039F9034662
:10159000002BF8D02B4B01221A702B4B00221A7013
:1015A0002A4B00221A702A4B00221A700C210120AB
:1015B000FFF704FD2748FFF75DFD3CE0FB88022BA9
:1015C0001BD100BF0221244802F01AF90346002B68
:1015D000F8D01C4B00221A701B4B01221A701B4BB7
:1015E00000221A701A4B00221A700C210120FFF7FA
:1015F000E5FC1848FFF73EFD1DE0FB88012B1AD1E2
:1016000000BF0121144802F0FBF80346002BF8D07C
:101610000C4B00221A700C4B00221A700B4B01224B
:101620001A700B4B00221A700C210120FFF7C6FC28
:101630000848FFF71FFD00BF0837BD4680BD00BF4B
:10164000000801409B0200209C0200209D02002017
:1016500001000020F0900008000C014080B588B027
:1016600000AF78607B681B68844A934240F07D81BC
:10167000834B1B780A2B17D0814B1B783A2B07D151
:101680007F4B1A787F4B1A707F4B01221A7067E1EB
:101690007D4B1B785A1CD1B27B4A11701A46784B8D
:1016A0001978784B99545BE1774B1B785A1CD1B26F
:1016B000754A11701A46734B0A219954734A0421D2
:1016C000734800F0E8FC0346012B40F0FE806D4BB0
:1016D0005B78302B40F0F9806A4B9B78312B40F0DF
:1016E000F480684BDB78302B0FD1664B1B79322BA3
:1016F0000BD1FFF703FD00F00BFD4FF0FF33192274
:101700006449654805F076F9DFE05E4BDB78302B05
:1017100040F09C805B4B1B79332B40F097805F4BF4
:101720001B78002B00F0D0804BE05A4B3A221A7005
:101730005B4B1B785B49184600F0D8FC554B3022B8
:10174000DA70544B33221A71574B1B781A461346E2
:101750001B019B1A5B000533544A13441946544835
:1017600006F0EAF812214F4800F05CFC03461A46E6
:10177000504B1A704F4B1B784F49184600F0B6FC7F
:10178000444B0D225A75434B0A229A754FF0FF3392
:1017900019224049404805F02DF94FF0FF330A2245
:1017A00046493D4805F0B1F9444B1B79422B08D11D
:1017B000434804F051FD3C4B1B780133DAB23A4BFD
:1017C0001A70394B1A78354B1B789A42ADD3364B89
:1017D0001A78324B1B789A4276D12E4B3A221A70E5
:1017E0002F4B1B782F49184600F080FC294B3022E4
:1017F000DA70284B32221A712B4B1B781A4613468B
:101800001B019B1A5B000533284A134419462848DC
:1018100006F092F81221234800F004FC03461A4611
:10182000244B1A70234B1B782349184600F05EFCAA
:10183000184B0D225A75174B0A229A754FF0FF3339
:1018400019221449144805F0D5F83DE00D4BDB781A
:10185000412B3AD10B4B1B79412B36D140F6B83294
:101860000021124806F020F8154804F0A3FC0E4BA6
:1018700000221A70134B00221A7026E00038014033
:1018800098020020500200209A02002055020020F9
:10189000510200207802002008020020BE02002031
:1018A0000000002079020020BF020020C4020020B6
:1018B0007D0200207C0E00208B02002064020020AC
:1018C000C0010020C002002000BF2A4B9B78772B6C
:1018D0003ED1294B1B883B820023BB74264B1B88BF
:1018E000BB810023BB73244B1B883B810023BB724D
:1018F00007F1100302222149184605F0DDFF07F128
:101900000C0302221E49184605F0D6FF07F1080312
:1019100002221C49184605F0CFFF07F110031846B4
:1019200005F01AFFF86107F10C03184605F014FFE3
:10193000B86107F10803184605F00EFF7861FB69EE
:10194000DBB2BA69D1B27A69D2B21846FFF7A8FB06
:101950000D4B00221A7014220021064805F0A4FF46
:1019600001220A490A4805F067F900BF2037BD4641
:1019700080BD00BF50020020F890000853020020F4
:1019800055020020570200209A02002098020020F1
:101990000802002080B500AF00F06AFF00F07CF87C
:1019A00000F05CFA00F0D4F800F010F900F03CF917
:1019B00000F08EF900F028FA00F064F900F0D6F992
:1019C000FFF70CFAFFF744FA0120FFF753FAFFF78D
:1019D0007FFAFFF712FB00210020FFF7EFFA234800
:1019E000FFF748FB08210020FFF7E8FA2048FFF73F
:1019F00041FB0C210020FFF7E1FA1E48FFF73AFBFC
:101A000000210120FFF7DAFA1B48FFF733FB08211A
:101A10000120FFF7D3FA1648FFF72CFB0C21012019
:101A2000FFF7CCFA1548FFF725FB154804F0C2FB79
:101A3000144804F0BFFB01221349144805F0FCF8D8
:101A40000121134804F04AFB034642F24532934217
:101A500004D0322232210C20FFF722FB0D4B1B78E1
:101A6000002BFBD100F0C0FEF8E700BFFC9000089F
:101A7000049100080C910008149100081C910008C2
:101A800078010020C00100209802002008020020F8
:101A9000640100200100002080B594B000AF07F180
:101AA000280328220021184605F0FEFE07F1140342
:101AB00000221A605A609A60DA601A613B1D0022A7
:101AC0001A605A609A60DA600123BB624FF4803377
:101AD000FB6200233B630123BB6302237B644FF45F
:101AE0008033BB640023FB6407F12803184603F02E
:101AF000C1F80346002B01D000F08EFA0F237B6162
:101B00000223BB610023FB6100233B6200237B6255
:101B100007F114030021184603F02EFB0346002BA7
:101B200001D000F079FA03237B604FF44073BB606F
:101B30000023FB603B1D184603F0ACFC0346002B62
:101B400001D000F069FA00BF5037BD4680BD0000EB
:101B500080B584B000AF3B1D00221A605A609A60C5
:101B6000184B194A1A60174B00229A60154B002235
:101B70001A73144B00221A75124B4FF46022DA616B
:101B8000104B00225A600F4B01221A610D4800F0E1
:101B9000F5FE0346002B01D000F03EFA00237B60E7
:101BA0000123BB600723FB603B1D1946054801F07C
:101BB00047F90346002B01D000F02EFA00BF103782
:101BC000BD4680BD8C0000200024014080B500AFE0
:101BD000124B134A1A60114B124A5A600F4B0022E3
:101BE0009A600E4B0022DA600C4B4FF480421A616F
:101BF0000A4B00225A61094B00229A61074B0022CE
:101C0000DA61064B00221A62044801F041FE0346E5
:101C1000002B01D000F000FA00BF80BDBC00002006
:101C200000540040A086010080B500AF124B134A5B
:101C30001A60114B124A5A600F4B00229A600E4BE9
:101C40000022DA600C4B4FF480421A610A4B0022EA
:101C50005A61094B00229A61074B0022DA61064B58
:101C600000221A62044801F013FE0346002B01D043
:101C700000F0D2F900BF80BD1001002000580040E4
:101C8000A086010080B582B000AF3B1D00210A464E
:101C90001A800A469A7000233B600B4B0B4A1A606D
:101CA000094B4FF0FF325A60074B4FF480729A6035
:101CB000054803F05BFD0346002B01D000F0ACF9B2
:101CC00000BF0837BD4680BD6401002000280040E9
:101CD00080B586B000AF07F1080300221A605A6091
:101CE0009A60DA603B4600221A605A601E4B4FF041
:101CF00080421A601C4B43F67F625A601A4B0022E6
:101D00009A60194B41F27072DA60174B00221A6127
:101D1000154B00229A61144804F0FCF90346002B8D
:101D200001D000F079F94FF48053BB6007F108034C
:101D300019460D4804F0AEFB0346002B01D000F01D
:101D40006BF900233B6000237B603B461946064845
:101D500004F090FD0346002B01D000F05DF900BFB8
:101D60001837BD4680BD00BF7801002080B586B021
:101D700000AF07F1080300221A605A609A60DA6027
:101D80003B4600221A605A601D4B1E4A1A601C4BCB
:101D900043F67F625A601A4B00229A60184B4EF647
:101DA0006022DA60164B00221A61154B00229A61FC
:101DB000134804F0AFF90346002B01D000F02CF9D2
:101DC0004FF48053BB6007F1080319460C4804F038
:101DD00061FB0346002B01D000F01EF900233B609D
:101DE00000237B603B461946054804F043FD03464B
:101DF000002B01D000F010F900BF1837BD4680BDA0
:101E0000C00100200004004080B500AF114B124A11
:101E10001A60104B4FF4E1325A600E4B00229A6068
:101E20000C4B0022DA600B4B00221A61094B0C228A
:101E30005A61084B00229A61064B0022DA6105487C
:101E400004F088FD0346002B01D000F0E5F800BF48
:101E500080BD00BF080200200038014080B588B076
:101E600000AF07F1100300221A605A609A60DA602E
:101E7000644B9B69634A43F010039361614B9B6918
:101E800003F01003FB60FB685E4B9B695D4A43F007
:101E9000200393615B4B9B6903F02003BB60BB682D
:101EA000584B9B69574A43F004039361554B9B6918
:101EB00003F004037B607B68524B9B69514A43F0FB
:101EC000080393614F4B9B6903F008033B603B6839
:101ED00001224FF400414C4801F0A9FC0022E2210C
:101EE0004A4801F0A4FC01224FF4E041484801F0C7
:101EF0009EFC01224FF40041444801F098FC4FF44D
:101F000000433B6101237B610023BB610223FB6132
:101F100007F1100319463C4801F0EEFAE2233B6159
:101F200001237B610023BB610223FB6107F11003E6
:101F30001946364801F0E0FA10233B61354B7B61CE
:101F40000123BB6107F110031946304801F0D4FAB0
:101F500003233B612F4B7B610123BB6107F110031E
:101F600019462B4801F0C8FA4FF4E0433B610123C6
:101F70007B610123BB610223FB6107F1100319465A
:101F8000234801F0B9FA4FF400433B6101237B6120
:101F90000123BB610223FB6107F1100319461B48B3
:101FA00001F0AAFA08233B611A4B7B610023BB6155
:101FB00007F110031946164801F09EFA002202218B
:101FC000062001F0B0F9062001F0C9F90022022133
:101FD000072001F0A8F9072001F0C1F90022032130
:101FE000092001F0A0F9092001F0B9F9002202212D
:101FF0000A2001F098F90A2001F0B1F900BF20375A
:10200000BD4680BD001002400010014000080140A4
:10201000000C01400000211080B400AF72B600BF78
:1020200000BFFDE780B584B000AF78600B467B80D1
:102030000023FB737B88012B01D8002327E00023BA
:10204000BB811CE0BB897A6813441B783B72BB8957
:1020500001337A6813441B787B720023BB7207F14B
:10206000080310220021184605F0F4FB0346FB721A
:10207000FA7BFB7A1344FB73BB890233BB81BA89B9
:102080007B889A42DED3FB7B5B42FB73FB7B18466B
:102090001037BD4680BD80B586B000AFF8600B46F6
:1020A0007A607B817B891946F868FFF7BBFF03469E
:1020B000FB757B681B783B747B685B787B740023C3
:1020C000BB7407F1100310220021184605F0C2FB73
:1020D0000346BB75FA7DBB7D9A4201D1012300E026
:1020E000002318461837BD4680BD000080B582B079
:1020F00000AF03463960FB71FB791A460349386823
:1021000005F0B2FB00BF0837BD4680BD2491000832
:1021100080B500AF2B4B3A221A702B4B1B782B4902
:102120001846FFF7E3FF274B3022DA70254B3222A7
:102130001A71274B1B7827491846FFF7D7FF244B06
:102140005B7825491846FFF7D1FF214B9B7823493F
:102150001846FFF7CBFF224B1B881B0A9BB2DBB252
:1021600020491846FFF7C2FF1D4B1B88DBB21E49F2
:102170001846FFF7BBFF1D4B1B881B0A9BB2DBB247
:102180001B491846FFF7B2FF184B1B88DBB21949F1
:102190001846FFF7ABFF12210C48FFF743FF034639
:1021A0001A46154B1A70144B1B7814491846FFF742
:1021B0009DFF044B0D225A75024B0A229A7500BFEF
:1021C00080BD00BF780200200000002079020020BE
:1021D000800E00207D0200207F020020810200206E
:1021E000AC0200208302002085020020A002002013
:1021F00087020020890200207C0E00208B02002034
:1022000080B485B000AF154B9B69144A43F00103BD
:102210009361124B9B6903F00103BB60BB680F4BDA
:10222000DB690E4A43F08053D3610C4BDB6903F04A
:1022300080537B607B680A4B5B68FB60FB6823F024
:10224000E063FB60FB6843F00073FB60044AFB68DB
:10225000536000BF1437BD4680BC70470010024079
:102260000000014080B588B000AF786007F110032E
:1022700000221A605A609A60DA607B681B68184A0C
:10228000934229D1174B9B69164A43F4007393611B
:10229000144B9B6903F40073FB60FB68114B9B6953
:1022A000104A43F0040393610E4B9B6903F004034F
:1022B000BB60BB6801233B6103237B6107F1100313
:1022C0001946094801F018F900220521122001F0F1
:1022D0002AF8122001F043F800BF2037BD4680BD28
:1022E00000240140001002400008014080B58AB07F
:1022F00000AF786007F1180300221A605A609A60F4
:10230000DA607B681B682B4A934224D12A4B9B6975
:10231000294A43F008039361274B9B6903F00803A4
:102320007B617B69C023BB611223FB6103237B625A
:1023300007F118031946214801F0DEF81E4BDB694E
:102340001D4A43F40013D3611B4BDB6903F40013F4
:102350003B613B6929E07B681B68194A934224D1A1
:10236000154B9B69144A43F008039361124B9B6918
:1023700003F00803FB60FB684FF44063BB6112236A
:10238000FB6103237B6207F1180319460B4801F038
:10239000B3F8094BDB69084A43F48003D361064B69
:1023A000DB6903F48003BB60BB6800BF2837BD4610
:1023B00080BD00BF0054004000100240000C0140EE
:1023C0000058004080B584B000AF78607B681B681F
:1023D0000B4A934210D102F041FC0A4BDB69094AD7
:1023E00043F00063D361074BDB6903F00063FB60DC
:1023F000FB68054B01221A6000BF1037BD4680BD47
:1024000000280040001002403C04424280B584B0E5
:1024100000AF78607B681B68B3F1804F14D1194B13
:10242000DB69184A43F00103D361164BDB6903F003
:102430000103FB60FB68002204211C2000F073FFF5
:102440001C2000F08CFF18E07B681B680E4A93424A
:1024500013D10C4BDB690B4A43F00203D361094BE8
:10246000DB6903F00203BB60BB68002206211D206C
:1024700000F059FF1D2000F072FF00BF1037BD466D
:1024800080BD00BF001002400004004080B588B04D
:1024900000AF786007F1100300221A605A609A605A
:1024A000DA607B681B68204A934239D11F4B9B69D5
:1024B0001E4A43F4804393611C4B9B6903F48043A1
:1024C000FB60FB68194B9B69184A43F00403936156
:1024D000164B9B6903F00403BB60BB684FF40073A9
:1024E0003B6102237B610323FB6107F11003194663
:1024F0000F4801F001F84FF480633B6100237B61DA
:102500000023BB6107F110031946094800F0F4FFEE
:1025100000220021252000F006FF252000F01FFFEB
:1025200000BF2037BD4680BD00380140001002408A
:102530000008014080B400AF00BFFDE780B400AFE9
:1025400000BFFDE780B400AF00BFFDE780B400AF7F
:1025500000BFFDE780B400AF00BFFDE780B400AF6F
:1025600000BFBD4680BC704780B400AF00BFBD4611
:1025700080BC704780B400AF00BFBD4680BC7047D0
:1025800080B500AF00F0BAF900BF80BD80B500AFE4
:10259000012001F065F900BF80BD80B500AF0220C9
:1025A00001F05EF900BF80BD80B500AF082001F0EA
:1025B00057F900BF80BD80B500AF102001F050F981
:1025C00000BF80BD80B500AF024800F071FB00BFC6
:1025D00080BD00BF8C00002080B500AF024803F032
:1025E00069FE00BF80BD00BF7801002080B500AF4C
:1025F000024803F05FFE00BF80BD00BFC0010020A5
:1026000080B500AF024804F03DFB00BF80BD00BFB5
:102610000802002080B586B000AF7860144A154BE0
:10262000D31A7B617B693B61134B1B68002B02D182
:10263000114B124A1A60104B1A687B6813443A69AE
:102640009A4207D205F04CF903460C221A604FF06B
:10265000FF3309E0084B1B68FB60074B1A687B6877
:102660001344054A1360FB6818461837BD4680BD01
:102670000050002000040000840E0020D80F00202D
:1026800080B400AF00BFBD4680BC704780B500AFCE
:1026900000228021124801F0CAF80122402110488E
:1026A00001F0C5F8002220210D4801F0C0F80122F8
:1026B0004FF480510B4801F0BAF800224FF400515A
:1026C000084801F0B4F801224FF48041054801F0B8
:1026D000AEF800220221024801F0A9F800BF80BD37
:1026E00000080140000C014080B500AF00228021AD
:1026F000124801F09CF800224021104801F097F8A0
:10270000012220210D4801F092F801224FF480515E
:102710000B4801F08CF801224FF40051084801F0F9
:1027200086F800224FF48041054801F080F801222C
:102730000221024801F07BF800BF80BD0008014083
:10274000000C014080B500AF01228021124801F049
:102750006EF800224021104801F069F80022202183
:102760000D4801F064F800224FF480510B4801F04D
:102770005EF801224FF40051084801F058F8012298
:102780004FF48041054801F052F80022022102482E
:1027900001F04DF800BF80BD00080140000C014071
:1027A00080B500AF0E4B1B88B3F57A7F06D80D4B72
:1027B0001B88192B02D8FFF7C5FF0EE0084B1B88BA
:1027C000B3F5FA6F03D2074B1B88312B02D9FFF701
:1027D0008BFF02E0FFF75AFF00BF00BF80BD00BFC4
:1027E000A0020020AC02002080B500AF0A4B1B788D
:1027F000012B02D1FFF7A6FF0CE0084B1B78012B41
:1028000002D1FFF743FF05E0054B1B78012B01D1F7
:10281000FFF76AFF00BF80BD9B0200209C020020E2
:102820009D020020FFF72CFF0B480C490C4A0023A7
:1028300002E0D458C4500433C4188C42F9D3094A76
:10284000094C002301E013600432A242FBD305F0DF
:102850004DF8FFF79FF8704700000020700000203F
:10286000E092000870000020D40F0020FEE7000076
:1028700080B500AF084B1B68074A43F01003136094
:10288000032000F045FD0F2000F008F8FFF7B8FC2A
:102890000023184680BD00BF0020024080B582B0F2
:1028A00000AF7860124B1A68124B1B7819464FF430
:1028B0007A73B3FBF1F3B2FBF3F3184600F05DFD5E
:1028C0000346002B01D001230EE07B680F2B0AD8B2
:1028D000002279684FF0FF3000F025FD064A7B6842
:1028E0001360002300E0012318460837BD4680BD71
:1028F000040000200C0000200800002080B400AF7D
:10290000054B1B781A46054B1B681344034A13609A
:1029100000BFBD4680BC70470C000020880E002020
:1029200080B400AF024B1B681846BD4680BC7047A0
:10293000880E002080B584B000AF7860FFF7F0FF0C
:10294000B8607B68FB60FB68B3F1FF3F05D00A4BC2
:102950001B781A46FB681344FB6000BFFFF7E0FFDB
:102960000246BB68D31AFA689A42F7D800BF00BF84
:102970001037BD4680BD00BF0C00002080B586B07A
:1029800000AF78600023FB7500233B610023BB6030
:102990000023FB607B68002B01D10123BEE07B6834
:1029A0009B68002B7B689B6A002B09D17B68002207
:1029B000DA627B68002283F824207868FFF752FCF3
:1029C000786800F08FFB0346FB757B689B6A03F019
:1029D0001003002B40F09980FB7D002B40F0958088
:1029E0007B689B6A23F4885323F0020343F00202BE
:1029F0007B689A627B685A687B68DB691A437B68EC
:102A00001B7B5B001343BA681343BB607B689B6806
:102A1000B3F5807F03D07B689B68012B02D14FF414
:102A2000807300E000233A6913433B617B681B7DA0
:102A3000012B19D17B681B7B002B09D17B689B691B
:102A4000013B5A033B69134343F400633B610BE0D2
:102A50007B689B6A43F020027B689A627B68DB6A32
:102A600043F001027B68DA627B681B685B6823F4D1
:102A700069417B681B683A690A435A607B681B6836
:102A80009A68284B13407A681268B9680B439360C0
:102A90007B689B68B3F5807F03D07B689B68012BC4
:102AA00004D17B681B69013B1B05FB607B681B68CD
:102AB000DB6A23F470017B681B68FA680A43DA62F8
:102AC0007B681B689A68184B1340BA689A420BD10E
:102AD0007B680022DA627B689B6A23F0030343F081
:102AE00001027B689A6218E07B689B6A23F01203FC
:102AF00043F010027B689A627B68DB6A43F0010254
:102B00007B68DA620123FB7507E07B689B6A43F010
:102B100010027B689A620123FB75FB7D184618370B
:102B2000BD4680BDFDF7E1FFFE0E1FFF80B584B0FE
:102B300000AF78600023FB737B6893F82430012B8F
:102B400001D10223A0E07B68012283F82420786869
:102B500000F06EFA0346FB73FB7B002B40F08F8086
:102B60007B689B6A23F4706323F0010343F4807253
:102B70007B689A627B681B68454A934205D1454B46
:102B80005B6803F47023002B15D17B689B6A23F4E8
:102B900080127B689A627B681B685B6803F48063C1
:102BA000002B26D07B689B6A23F4405343F4805269
:102BB0007B689A621DE07B689B6A43F480127B68A5
:102BC0009A627B681B68334A934204D07B681B6817
:102BD0002F4A93420DD12F4B5B6803F48063002B87
:102BE00007D07B689B6A23F4405343F480527B6890
:102BF0009A627B689B6A03F48053002B06D07B6843
:102C0000DB6A23F006027B68DA6202E07B6800225E
:102C1000DA627B68002283F824207B681B686FF0EF
:102C200002021A607B681B685A687B681B6842F066
:102C300020025A607B681B689B6803F46023B3F52D
:102C4000602F13D17B681B68114A934205D1114B49
:102C50005B6803F47023002B08D17B681B689A68BB
:102C60007B681B6842F4A0029A600CE07B681B68DA
:102C70009A687B681B6842F480129A6003E07B6864
:102C8000002283F82420FB7B18461037BD4680BD08
:102C9000002801400024014080B483B000AF786078
:102CA0007B681B68DB6C18460C37BD4680BC7047E0
:102CB00080B584B000AF78607B681B681B68FB60E0
:102CC0007B681B685B68BB60BB6803F02003002B5C
:102CD0003ED0FB6803F00203002B39D07B689B6A6F
:102CE00003F01003002B05D17B689B6A43F400724C
:102CF0007B689A627B681B689B6803F46023B3F56A
:102D0000602F1DD17B681B7B002B19D17B681B6852
:102D10005A687B681B6822F020025A607B689B6AB5
:102D200023F480727B689A627B689B6A03F4805309
:102D3000002B05D17B689B6A43F001027B689A6295
:102D40007868FEF751FB7B681B686FF012021A600F
:102D5000BB6803F08003002B4DD0FB6803F0040335
:102D6000002B48D07B689B6A03F01003002B05D131
:102D70007B689B6A43F400527B689A627B681B689D
:102D80009B6803F4E043B3F5E04F12D07B681B6807
:102D90005B6803F48063002B25D17B681B689B680C
:102DA00003F46023B3F5602F1DD17B681B7B002BE0
:102DB00019D17B681B685A687B681B6822F0800207
:102DC0005A607B689B6A23F480527B689A627B68B6
:102DD0009B6A03F48073002B05D17B689B6A43F0E8
:102DE00001027B689A62786800F0BDF97B681B6815
:102DF0006FF00C021A60BB6803F04003002B12D086
:102E0000FB6803F00103002B0DD07B689B6A43F441
:102E100080327B689A62786800F009F87B681B68EA
:102E20006FF001021A6000BF1037BD4680BD80B44C
:102E300083B000AF786000BF0C37BD4680BC7047E0
:102E400080B485B000AF786039600023FB73002345
:102E5000BB607B6893F82430012B01D10223DCE0B6
:102E60007B68012283F824203B685B68062B1CD812
:102E70007B681B68596B3B685A6813469B00134478
:102E8000053B1F2202FA03F3DB4319403B68186835
:102E90003B685A6813469B001344053B00FA03F253
:102EA0007B681B680A435A633CE03B685B680C2BF9
:102EB0001CD87B681B68196B3B685A6813469B00DB
:102EC0001344233B1F2202FA03F3DB4319403B6800
:102ED00018683B685A6813469B001344233B00FA6A
:102EE00003F27B681B680A431A631BE07B681B685C
:102EF000D96A3B685A6813469B001344413B1F2222
:102F000002FA03F3DB4319403B6818683B685A68D0
:102F100013469B001344413B00FA03F27B681B6895
:102F20000A43DA623B681B68092B1CD97B681B6863
:102F3000D9683B681A6813465B0013441E3B07229E
:102F400002FA03F3DB4319403B6898683B681A6850
:102F500013465B0013441E3B00FA03F27B681B68B8
:102F60000A43DA6019E07B681B6819693B681A68D4
:102F700013465B001344072202FA03F3DB431940B4
:102F80003B6898683B681A6813465B00134400FA74
:102F900003F27B681B680A431A613B681B68102BAD
:102FA00003D03B681B68112B32D17B681B681D4A1C
:102FB000934225D17B681B689B6803F40003002BB8
:102FC00026D17B681B689A687B681B6842F4000204
:102FD0009A603B681B68102B1AD1134B1B68134A6D
:102FE000A2FB03239A0C13469B0013445B00BB60B7
:102FF00002E0BB68013BBB60BB68002BF9D107E076
:103000007B689B6A43F020027B689A620123FB7312
:103010007B68002283F82420FB7B18461437BD46CA
:1030200080BC7047002401400400002083DE1B4365
:1030300080B584B000AF78600023FB600023BB60E4
:103040007B681B689B6803F00103012B40D07B6801
:103050001B689A687B681B6842F001029A601F4BEC
:103060001B681F4AA2FB03239B0CBB6002E0BB68EA
:10307000013BBB60BB68002BF9D1FFF751FCF86046
:103080001FE0FFF74DFC0246FB68D31A022B18D94C
:103090007B681B689B6803F00103012B11D07B68E0
:1030A0009B6A43F010027B689A627B68DB6A43F09C
:1030B00001027B68DA627B68002283F82420012306
:1030C00007E07B681B689B6803F00103012BD8D1E4
:1030D000002318461037BD4680BD00BF0400002005
:1030E00083DE1B4380B584B000AF78600023FB60B3
:1030F0007B681B689B6803F00103012B2ED17B6862
:103100001B689A687B681B6822F001029A60FFF7CF
:1031100007FCF8601BE0FFF703FC0246FB68D31ACC
:10312000022B14D97B681B689B6803F00103012BF9
:103130000DD17B689B6A43F010027B689A627B68C2
:10314000DB6A43F001027B68DA62012307E07B68F7
:103150001B689B6803F00103012BDCD00023184699
:103160001037BD4680BD80B483B000AF786000BF2B
:103170000C37BD4680BC704780B485B000AF786026
:103180007B6803F00703FB600C4BDB68BB60BA682D
:103190004FF6FF031340BB60FB681A02BB68134382
:1031A00043F0BF6343F40033BB60044ABB68D360A1
:1031B00000BF1437BD4680BC704700BF00ED00E083
:1031C00080B400AF044BDB681B0A03F0070318460A
:1031D000BD4680BC704700BF00ED00E080B483B006
:1031E00000AF0346FB7197F90730002B0BDBFB792F
:1031F00003F01F02064997F907305B09012000FA26
:1032000002F241F8232000BF0C37BD4680BC704756
:1032100000E100E080B483B000AF03463960FB7189
:1032200097F90730002B0ADB3B68DAB20C4997F9B3
:1032300007301201D2B20B4483F800230AE03B6846
:10324000DAB20849FB7903F00F03043B1201D2B252
:103250000B441A7600BF0C37BD4680BC704700BFD8
:1032600000E100E000ED00E080B489B000AFF8605C
:10327000B9607A60FB6803F00703FB61FB69C3F187
:103280000703042B28BF0423BB61FB690433062B0F
:1032900002D9FB69033B00E000237B614FF0FF3262
:1032A000BB6902FA03F3DA43BB681A407B699A40B0
:1032B0004FF0FF317B6901FA03F3D9437B680B4080
:1032C000134318462437BD4680BC704780B582B092
:1032D00000AF78607B68013BB3F1807F01D30123AD
:1032E0000FE00A4A7B68013B53600F214FF0FF302B
:1032F000FFF790FF054B00229A60044B07221A60EB
:10330000002318460837BD4680BD00BF10E000E02E
:1033100080B582B000AF78607868FFF72DFF00BFFE
:103320000837BD4680BD80B586B000AF0346B960A2
:103330007A60FB7300237B61FFF742FF78617A6854
:10334000B9687869FFF790FF024697F90F30114688
:103350001846FFF75FFF00BF1837BD4680BD80B538
:1033600082B000AF0346FB7197F907301846FFF7AC
:1033700035FF00BF0837BD4680BD80B582B000AFC5
:1033800078607868FFF7A2FF034618460837BD4605
:1033900080BD80B485B000AF78600023FB737B688C
:1033A00093F82130DBB2022B08D07B6804229A63A9
:1033B0007B68002283F82020012320E07B681B68C3
:1033C0001A687B681B6822F00E021A607B681B6813
:1033D0001A687B681B6822F001021A607B681A6C0D
:1033E0007B68DB6B012101FA02F25A607B680122E3
:1033F00083F821207B68002283F82020FB7B18467D
:103400001437BD4680BC704780B584B000AF78608B
:103410000023FB737B6893F82130DBB2022B05D0CD
:103420007B6804229A630123FB7351E07B681B686D
:103430001A687B681B6822F00E021A607B681B68A2
:103440001A687B681B6822F001021A607B681B689F
:10345000224A934229D07B681B68214A934222D09A
:103460007B681B681F4A93421AD07B681B681E4A00
:10347000934212D07B681B681C4A93420AD07B6837
:103480001B681B4A934202D14FF480130EE04FF0A9
:1034900080730BE04FF4803308E04FF4805305E075
:1034A0004FF4807302E0102300E00123114A5360BF
:1034B0007B68012283F821207B68002283F820208A
:1034C0007B685B6B002B03D07B685B6B78689847ED
:1034D000FB7B18461037BD4680BD00BF0800024088
:1034E0001C000240300002404400024058000240EC
:1034F0006C0002400000024080B48BB000AF7860E6
:10350000396000237B6200233B6269E101227B6A10
:1035100002FA03F3FB613B681B68FA691340BB6165
:10352000BA69FB699A4240F058813B685B689A4AE5
:1035300093425ED0984A934275D8984A934258D0A5
:10354000964A93426FD8964A934252D0944A9342F5
:1035500069D8944A93424CD0924A934263D8924A93
:10356000934246D0904A93425DD8122B2AD8122B10
:1035700059D801A252F823F0F3350008CD350008E0
:10358000DF350008213600082736000827360008F6
:103590002736000827360008273600082736000897
:1035A0002736000827360008273600082736000887
:1035B000273600082736000827360008D5350008CA
:1035C000E9350008794A934213D02CE03B68DB6868
:1035D0003B6229E03B68DB6804333B6224E03B68E4
:1035E000DB6808333B621FE03B68DB680C333B62FF
:1035F0001AE03B689B68002B02D104233B6213E076
:103600003B689B68012B05D108233B627B68FA6904
:103610001A6109E008233B627B68FA695A6103E09A
:1036200000233B6200E000BFBB69FF2B01D87B6831
:1036300001E07B6804337B61BB69FF2B02D87B6AA6
:103640009B0002E07B6A083B9B003B617B691A6838
:103650000F213B6901FA03F3DB431A40396A3B69E6
:1036600001FA03F31A437B691A603B685B6803F055
:103670008053002B00F0B1804D4B9B694C4A43F0C6
:10368000010393614A4B9B6903F00103BB60BB6874
:10369000484A7B6A9B08023352F82330FB607B6AFE
:1036A00003F003039B000F2202FA03F3DB43FA68E3
:1036B0001340FB607B68404A934213D07B683F4ACB
:1036C00093420DD07B683E4A934207D07B683D4AC7
:1036D000934201D1032306E0042304E0022302E025
:1036E000012300E000237A6A02F003029200934073
:1036F000FA681343FB602F497B6A9B080233FA6820
:1037000041F823203B685B6803F48013002B06D04C
:103710002D4B9A682C49BB6913438B6006E02A4BFA
:103720009A68BB69DB43284913408B603B685B6840
:1037300003F40013002B06D0234BDA682249BB693F
:103740001343CB6006E0204BDA68BB69DB431E49BC
:103750001340CB603B685B6803F40033002B06D05A
:10376000194B5A681849BB6913434B6006E0164B66
:103770005A68BB69DB43144913404B603B685B6884
:1037800003F48033002B21D00F4B1A680E49BB691C
:1037900013430B6021E000BF000032100000311025
:1037A0000000221000002110000012100000111073
:1037B000001002400000014000080140000C0140E0
:1037C0000010014000140140000401400B4B1A6836
:1037D000BB69DB43094913400B607B6A01337B62A1
:1037E0003B681A687B6A22FA03F3002B7FF48EAEE3
:1037F00000BF00BF2C37BD4680BC704700040140AD
:1038000080B485B000AF78600B467B807B689A6897
:103810007B881340002B02D00123FB7301E00023BF
:10382000FB73FB7B18461437BD4680BC704780B4E1
:1038300083B000AF78600B467B8013467B707B784B
:10384000002B03D07A887B681A6103E07B881A0416
:103850007B681A6100BF0C37BD4680BC7047000012
:1038600080B582B000AF0346FB80084B5A69FB88E5
:103870001340002B06D0054AFB885361FB8818468D
:10388000FDF778FE00BF0837BD4680BD000401404B
:1038900080B584B000AF78607B68002B01D1012334
:1038A0002BE17B6893F83D30DBB2002B06D17B68BF
:1038B000002283F83C207868FEF718FD7B682422FC
:1038C00083F83D207B681B681A687B681B6822F0C0
:1038D00001021A607B681B681A687B681B6842F4E7
:1038E00000421A607B681B681A687B681B6822F4B8
:1038F00000421A6001F088FDF8607B685B68814ACD
:10390000934207D8FB68804A934294BF0123002367
:10391000DBB206E0FB687D4A934294BF012300239B
:10392000DBB2002B01D00123E7E0FB68784AA2FB61
:1039300003239B0CBB607B681B685B6823F03F0123
:103940007B681B68BA680A435A607B681B681B6AFD
:1039500023F03F017B685B686A4A934202D8BB68E8
:10396000013309E0BB684FF4967202FB03F3694A26
:10397000A2FB03239B0901337A6812680B4313628D
:103980007B681B68DB6923F44F4222F0FF027B68EF
:103990005B685C498B4219D8FB68591E7B685B6881
:1039A0005B00B1FBF3F3591C40F6FC730B40002B9A
:1039B0000AD0FB68591E7B685B685B00B1FBF3F3C0
:1039C0000133C3F30B0351E004234FE07B689B6892
:1039D000002B11D1FB68581E7B6859680B465B00B1
:1039E0000B44B0FBF3F30133C3F30B03002B0CBF09
:1039F00001230023DBB212E0FB68581E7B68596884
:103A00000B469B000B4499000B44B0FBF3F30133CE
:103A1000C3F30B03002B0CBF01230023DBB2002BED
:103A200001D0012322E07B689B68002B0ED1FB684C
:103A3000581E7B6859680B465B000B44B0FBF3F3E0
:103A40000133C3F30B0343F400430FE0FB68581E3C
:103A50007B6859680B469B000B4499000B44B0FBF4
:103A6000F3F30133C3F30B0343F44043796809686C
:103A70001343CB617B681B681B6823F0C0017B6824
:103A8000DA697B681B6A1A437B681B680A431A6001
:103A90007B681B689B6823F4034323F0FF037A6869
:103AA00011697A68D26811437A6812680B4393608F
:103AB0007B681B68DB6823F0FF017B685A697B68C1
:103AC0009B691A437B681B680A43DA607B681B6842
:103AD0001A687B681B6842F001021A607B6800224A
:103AE0001A647B68202283F83D207B6800221A63D9
:103AF0007B68002283F83E20002318461037BD461D
:103B000080BD00BFA08601007F841E00FF083D002D
:103B100083DE1B43D34D621080B588B002AFF860DE
:103B20007A601A460B467B8113463B81FEF7F8FE0E
:103B30007861FB6893F83D30DBB2202B40F0E080E9
:103B40007B690093192301227049F86800F050FE48
:103B50000346002B01D00223D3E0FB6893F83C30EE
:103B6000012B01D10223CCE0FB68012283F83C2029
:103B7000FB681B681B6803F00103012B07D0FB687F
:103B80001B681A68FB681B6842F001021A60FB6838
:103B90001B681A68FB681B6822F400621A60FB68E5
:103BA000212283F83D20FB68102283F83E20FB6829
:103BB00000221A64FB687A685A62FB683A895A855F
:103BC000FB685B8D9AB2FB681A85FB68504ADA6223
:103BD00079897B693A6AF86800F00AFC0346002B91
:103BE00001D001238DE000233B61FB681B685B690A
:103BF0003B61FB681B689B693B613B6966E07A69D6
:103C0000396AF86800F00EFF0346002B0DD0FB6800
:103C10001B6C042B07D1FB681B681A68FB681B68C8
:103C200042F400721A6001236BE0FB685B6A1A7849
:103C3000FB681B681A61FB685B6A5A1CFB685A6266
:103C4000FB685B8D9BB2013B9AB2FB685A85FB68AF
:103C50001B8D013B9AB2FB681A85FB681B685B6988
:103C600003F00403042B1BD1FB681B8D002B17D022
:103C7000FB685B6A1A78FB681B681A61FB685B6A01
:103C80005A1CFB685A62FB685B8D9BB2013B9AB27F
:103C9000FB685A85FB681B8D013B9AB2FB681A854D
:103CA0007A69396AF86800F005FF0346002B0DD0E9
:103CB000FB681B6C042B07D1FB681B681A68FB6848
:103CC0001B6842F400721A6001231AE0FB681B8D26
:103CD000002B94D1FB681B681A68FB681B6842F4D0
:103CE00000721A60FB68202283F83D20FB680022E6
:103CF00083F83E20FB68002283F83C20002300E08C
:103D0000022318461837BD4680BD00BF02001000D0
:103D10000000FFFF80B588B002AFF860084611468A
:103D20001A4603467B810B463B811346FB80FEF718
:103D3000F7FD7861FB6893F83D30DBB2202B40F053
:103D4000D9807B690093192301226D49F86800F03E
:103D50004FFD0346002B01D00223CCE0FB6893F813
:103D60003C30012B01D10223C5E0FB68012283F81E
:103D70003C20FB681B681B6803F00103012B07D084
:103D8000FB681B681A68FB681B6842F001021A6036
:103D9000FB681B681A68FB681B6822F400621A60E3
:103DA000FB68212283F83D20FB68402283F83E20F7
:103DB000FB6800221A64FB683A6A5A62FB68BA8C94
:103DC0005A85FB685B8D9AB2FB681A85FB684D4A81
:103DD000DA62F8883A8979897B690193BB6A009332
:103DE0000346F86800F086FB0346002B52D00123FF
:103DF00081E07A69B96AF86800F014FE0346002B86
:103E00000DD0FB681B6C042B07D1FB681B681A687C
:103E1000FB681B6842F400721A6001236BE0FB68C8
:103E20005B6A1A78FB681B681A61FB685B6A5A1C3C
:103E3000FB685A62FB681B8D013B9AB2FB681A85CE
:103E4000FB685B8D9BB2013B9AB2FB685A85FB68AD
:103E50001B685B6903F00403042B1BD1FB681B8DFB
:103E6000002B17D0FB685B6A1A78FB681B681A6125
:103E7000FB685B6A5A1CFB685A62FB681B8D013B3E
:103E80009AB2FB681A85FB685B8D9BB2013B9AB2C4
:103E9000FB685A85FB681B8D002BAAD17A69B96A29
:103EA000F86800F007FE0346002B0DD0FB681B6C82
:103EB000042B07D1FB681B681A68FB681B6842F477
:103EC00000721A60012316E0FB681B681A68FB6821
:103ED0001B6842F400721A60FB68202283F83D20C0
:103EE000FB68002283F83E20FB68002283F83C2018
:103EF000002300E0022318461837BD4680BD00BFEE
:103F0000020010000000FFFF80B58CB002AFF86027
:103F1000084611461A4603467B810B463B811346F1
:103F2000FB8000233B62FEF7FBFC7862FB6893F8A2
:103F30003D30DBB2202B40F050827B6A0093192386
:103F400001228249F86800F053FC0346002B01D09F
:103F5000022343E2FB6893F83C30012B01D102239A
:103F60003CE2FB68012283F83C20FB681B681B686D
:103F700003F00103012B07D0FB681B681A68FB687C
:103F80001B6842F001021A60FB681B681A68FB6834
:103F90001B6822F400621A60FB68222283F83D202D
:103FA000FB68402283F83E20FB6800221A64FB680D
:103FB0003A6B5A62FB68BA8E5A85FB685B8D9AB27F
:103FC000FB681A85FB68624ADA62F8883A8979895F
:103FD0007B6A0193BB6B00930346F86800F020FBFB
:103FE0000346002B01D00123F8E1FB681B8D002B59
:103FF00013D10023FB61FB681B685B69FB61FB68F5
:104000001B689B69FB61FB69FB681B681A68FB689E
:104010001B6842F400721A60CCE1FB681B8D012B17
:104020001ED1FB681B681A68FB681B6822F480625B
:104030001A6072B600BF0023BB61FB681B685B6936
:10404000BB61FB681B689B69BB61BB69FB681B6844
:104050001A68FB681B6842F400721A6062B635E0A9
:10406000FB681B8D022B1ED1FB681B681A68FB685E
:104070001B6842F400621A6072B600BF00237B61C5
:10408000FB681B685B697B61FB681B689B697B61E4
:104090007B69FB681B681A68FB681B6822F48062F6
:1040A0001A6062B612E0FB681B681A68FB681B683E
:1040B00042F480621A6000233B61FB681B685B6905
:1040C0003B61FB681B689B693B613B6972E1FB6874
:1040D0001B8D032B00F21F81FB681B8D012B23D14D
:1040E0007A6AB96BF86800F02DFD0346002B01D009
:1040F000012373E1FB681B681A69FB685B6AD2B233
:104100001A70FB685B6A5A1CFB685A62FB681B8D5D
:10411000013B9AB2FB681A85FB685B8D9BB2013B41
:104120009AB2FB685A8545E1FB681B8D022B52D180
:104130007B6A0093BB6B00220649F86800F058FBCD
:104140000346002B08D0012348E100BF0200100005
:104150000000FFFF0400010072B600BFFB681B688F
:104160001A68FB681B6842F400721A60FB681B68DF
:104170001A69FB685B6AD2B21A70FB685B6A5A1CE8
:10418000FB685A62FB681B8D013B9AB2FB681A857B
:10419000FB685B8D9BB2013B9AB2FB685A8562B6A5
:1041A00000BFFB681B681A69FB685B6AD2B21A70B1
:1041B000FB685B6A5A1CFB685A62FB681B8D013BFB
:1041C0009AB2FB681A85FB685B8D9BB2013B9AB281
:1041D000FB685A85EEE07B6A0093BB6B0022814945
:1041E000F86800F005FB0346002B01D00123F5E041
:1041F000FB681B681A68FB681B6822F480621A60FF
:1042000072B600BFFB681B681A69FB685B6AD2B2B2
:104210001A70FB685B6A5A1CFB685A62FB681B8D4C
:10422000013B9AB2FB681A85FB685B8D9BB2013B30
:104230009AB2FB685A856C4B1B68DB086B4AA2FB81
:1042400003231A0A13469B001344DA00D31A3B6275
:104250003B6A013B3B623B6A002B18D1FB680022A2
:104260001A63FB68202283F83D20FB68002283F854
:104270003E20FB681B6C43F02002FB681A6462B6A8
:1042800000BFFB68002283F83C200123A6E0FB6806
:104290001B685B6903F00403042BD9D1FB681B681E
:1042A0001A68FB681B6842F400721A60FB681B689E
:1042B0001A69FB685B6AD2B21A70FB685B6A5A1CA7
:1042C000FB685A62FB681B8D013B9AB2FB681A853A
:1042D000FB685B8D9BB2013B9AB2FB685A8562B664
:1042E00000BFFB681B681A69FB685B6AD2B21A7070
:1042F000FB685B6A5A1CFB685A62FB681B8D013BBA
:104300009AB2FB681A85FB685B8D9BB2013B9AB23F
:10431000FB685A854EE07A6AB96BF86800F012FCC7
:104320000346002B01D0012358E0FB681B681A6983
:10433000FB685B6AD2B21A70FB685B6A5A1CFB6846
:104340005A62FB681B8D013B9AB2FB681A85FB68B9
:104350005B8D9BB2013B9AB2FB685A85FB681B6878
:104360005B6903F00403042B24D1FB681B8D032B32
:1043700007D1FB681B681A68FB681B6822F480621F
:104380001A60FB681B681A69FB685B6AD2B21A7014
:10439000FB685B6A5A1CFB685A62FB681B8D013B19
:1043A0009AB2FB681A85FB685B8D9BB2013B9AB29F
:1043B000FB685A85FB681B8D002B7FF488AEFB6879
:1043C000202283F83D20FB68002283F83E20FB6812
:1043D000002283F83C20002300E0022318462837FF
:1043E000BD4680BD040001000400002089B5F8141A
:1043F00080B588B002AFF8607A603B600B467B8185
:10440000FB68DB6A7B617B69082B06D07B69012B2B
:1044100003D07B6913F5803F08D1FB681B681A68DD
:10442000FB681B6842F480721A600BE0FB681B6B30
:10443000122B07D1FB681B681A68FB681B6842F4E3
:1044400080721A603B6800937B6800224FF0011174
:10445000F86800F0CDF90346002B0DD0FB681B680F
:104460001B6803F48073B3F5807F03D1FB684FF4BE
:1044700000721A64032335E0FB681B69B3F5804FB3
:1044800008D17B89DBB21A46FB681B6802F0FE028A
:104490001A611BE07B89DB11DBB203F00603DBB2A0
:1044A00063F00F03DAB2FB681B681A613B687A6835
:1044B0000E49F86800F016FA0346002B01D00123DC
:1044C00010E07B89DAB2FB681B681A613B687A6886
:1044D0000749F86800F006FA0346002B01D00123D3
:1044E00000E0002318461837BD4680BD08000100D3
:1044F0000200010080B588B002AFF860084611469E
:104500001A4603467B810B463B811346FB80FB68C2
:104510001B681A68FB681B6842F480721A607B6A29
:1045200000933B6A00224FF00111F86800F060F937
:104530000346002B0DD0FB681B681B6803F48073D7
:10454000B3F5807F03D1FB684FF400721A64032334
:104550005FE07B89DBB21A46FB681B6802F0FE0253
:104560001A617B6A3A6A2D49F86800F0BBF9034684
:10457000002B01D001234CE000237B61FB681B680A
:104580005B697B61FB681B689B697B617B697A6AFD
:10459000396AF86800F046FA0346002B0DD0FB6834
:1045A0001B6C042B07D1FB681B681A68FB681B682F
:1045B00042F400721A6001232BE0FB88012B05D125
:1045C0003B89DAB2FB681B681A6121E03B891B0A50
:1045D0009BB2DAB2FB681B681A617A6A396AF868BA
:1045E00000F020FA0346002B0DD0FB681B6C042B57
:1045F00007D1FB681B681A68FB681B6842F40072ED
:104600001A60012305E03B89DAB2FB681B681A6176
:10461000002318461837BD4680BD00BF02000100C8
:1046200080B588B002AFF860084611461A460346C6
:104630007B810B463B811346FB80FB681B681A6835
:10464000FB681B6842F480621A60FB681B681A688A
:10465000FB681B6842F480721A607B6A00933B6AB5
:1046600000224FF00111F86800F0C2F80346002B59
:104670000DD0FB681B681B6803F48073B3F5807F63
:1046800003D1FB684FF400721A640323AAE07B890C
:10469000DBB21A46FB681B6802F0FE021A617B6AF5
:1046A0003A6A5249F86800F01DF90346002B01D020
:1046B000012397E000237B61FB681B685B697B61DA
:1046C000FB681B689B697B617B697A6A396AF86859
:1046D00000F0A8F90346002B0DD0FB681B6C042BDF
:1046E00007D1FB681B681A68FB681B6842F40072FC
:1046F0001A60012376E0FB88012B05D13B89DAB2F1
:10470000FB681B681A6121E03B891B0A9BB2DAB285
:10471000FB681B681A617A6A396AF86800F082F9E6
:104720000346002B0DD0FB681B6C042B07D1FB68E4
:104730001B681A68FB681B6842F400721A60012348
:1047400050E03B89DAB2FB681B681A617A6A396A01
:10475000F86800F067F90346002B0DD0FB681B6C6E
:10476000042B07D1FB681B681A68FB681B6842F4BE
:1047700000721A60012335E0FB681B681A68FB6849
:104780001B6842F480721A607B6A00933B6A0022C5
:104790004FF00111F86800F02BF80346002B0DD004
:1047A000FB681B681B6803F48073B3F5807F03D13B
:1047B000FB684FF400721A64032313E07B89DBB2B9
:1047C00043F00103DAB2FB681B681A617B6A3A6A3C
:1047D0000649F86800F086F80346002B01D0012353
:1047E00000E0002318461837BD4680BD02000100D6
:1047F00080B584B000AFF860B9603B601346FB71D0
:1048000048E03B68B3F1FF3F44D0FEF789F8024629
:10481000BB69D31A3A689A4202D33B68002B39D15C
:10482000BB681B0CDBB2012B0DD1FB681B685B69FD
:10483000DA43BB6813409BB2002B0CBF012300235B
:10484000DBB21A460CE0FB681B689B69DA43BB6865
:1048500013409BB2002B0CBF01230023DBB21A468E
:10486000FB799A4216D1FB6800221A63FB6820226A
:1048700083F83D20FB68002283F83E20FB681B6C18
:1048800043F02002FB681A64FB68002283F83C2096
:10489000012323E0BB681B0CDBB2012B0DD1FB68AD
:1048A0001B685B69DA43BB6813409BB2002B0CBFEB
:1048B00001230023DBB21A460CE0FB681B689B69EE
:1048C000DA43BB6813409BB2002B0CBF01230023CB
:1048D000DBB21A46FB799A4293D000231846103770
:1048E000BD4680BD80B584B000AFF860B9607A6025
:1048F0003B6071E0FB681B685B6903F48063B3F5A0
:10490000806F23D1FB681B681A68FB681B6842F440
:1049100000721A60FB681B686FF480625A61FB6862
:1049200000221A63FB68202283F83D20FB680022E6
:1049300083F83E20FB681B6C43F00402FB681A649A
:10494000FB68002283F83C20012367E07B68B3F119
:10495000FF3F41D0FDF7E4FF02463B68D31A7A6877
:104960009A4202D37B68002B36D1BB681B0CDBB2AA
:10497000012B0CD1FB681B685B69DA43BB681340F1
:104980009BB2002B14BF01230023DBB20BE0FB68BA
:104990001B689B69DA43BB6813409BB2002B14BFB2
:1049A00001230023DBB2002B16D0FB6800221A6320
:1049B000FB68202283F83D20FB68002283F83E201C
:1049C000FB681B6C43F02002FB681A64FB68002242
:1049D00083F83C20012321E0BB681B0CDBB2012BD8
:1049E0000CD1FB681B685B69DA43BB6813409BB260
:1049F000002B14BF01230023DBB20BE0FB681B6814
:104A00009B69DA43BB6813409BB2002B14BF0123A0
:104A10000023DBB2002B7FF46DAF00231846103764
:104A2000BD4680BD80B584B000AFF860B9607A60E3
:104A300034E0F86800F0E3F80346002B01D00123CE
:104A400034E0BB68B3F1FF3F28D0FDF769FF0246B1
:104A50007B68D31ABA689A4202D3BB68002B1DD177
:104A6000FB681B685B6903F08003802B16D0FB6832
:104A700000221A63FB68202283F83D20FB68002295
:104A800083F83E20FB681B6C43F02002FB681A642D
:104A9000FB68002283F83C20012307E0FB681B68C9
:104AA0005B6903F08003802BC3D1002318461037C5
:104AB000BD4680BD80B584B000AFF860B9607A6053
:104AC00034E0F86800F09BF80346002B01D0012386
:104AD00034E0BB68B3F1FF3F28D0FDF721FF024669
:104AE0007B68D31ABA689A4202D3BB68002B1DD1E7
:104AF000FB681B685B6903F00403042B16D0FB689A
:104B000000221A63FB68202283F83D20FB68002204
:104B100083F83E20FB681B6C43F02002FB681A649C
:104B2000FB68002283F83C20012307E0FB681B6838
:104B30005B6903F00403042BC3D10023184610372C
:104B4000BD4680BD80B584B000AFF860B9607A60C2
:104B500049E0FB681B685B6903F01003102B19D157
:104B6000FB681B686FF010025A61FB6800221A6331
:104B7000FB68202283F83D20FB68002283F83E205A
:104B8000FB681A6CFB681A64FB68002283F83C20FF
:104B9000012330E0FDF7C4FE02467B68D31ABA68F1
:104BA0009A4202D3BB68002B1DD1FB681B685B696E
:104BB00003F04003402B16D0FB6800221A63FB6809
:104BC000202283F83D20FB68002283F83E20FB680A
:104BD0001B6C43F02002FB681A64FB68002283F818
:104BE0003C20012307E0FB681B685B6903F040037E
:104BF000402BAED1002318461037BD4680BD80B48F
:104C000083B000AF78607B681B685B6903F48063E6
:104C1000B3F5806F1BD17B681B686FF480625A61AB
:104C20007B6800221A637B68202283F83D207B6822
:104C3000002283F83E207B681B6C43F004027B68F3
:104C40001A647B68002283F83C20012300E00023E3
:104C500018460C37BD4680BC7047000080B400AFDA
:104C6000034B01221A6000BFBD4680BC704700BFE5
:104C700020000E4280B586B000AF78607B68002BC4
:104C800001D1012372E27B681B6803F00103002B52
:104C900000F08780924B5B6803F00C03042B0CD070
:104CA0008F4B5B6803F00C03082B12D18C4B5B68B5
:104CB00003F48033B3F5803F0BD1894B1B6803F4B9
:104CC0000033002B6CD07B685B68002B68D101231C
:104CD0004CE27B685B68B3F5803F06D1804B1B6874
:104CE0007F4A43F4803313602EE07B685B68002BBF
:104CF0000CD17B4B1B687A4A23F480331360784BCA
:104D00001B68774A23F4802313601DE07B685B688F
:104D1000B3F5A02F0CD1724B1B68714A43F480236A
:104D200013606F4B1B686E4A43F4803313600BE0D3
:104D30006B4B1B686A4A23F480331360684B1B6813
:104D4000674A23F4802313607B685B68002B13D0D1
:104D5000FDF7E6FD386108E0FDF7E2FD02463B693C
:104D6000D31A642B01D9032300E25D4B1B6803F4C3
:104D70000033002BF0D014E0FDF7D2FD386108E0DD
:104D8000FDF7CEFD02463B69D31A642B01D90323FC
:104D9000ECE1534B1B6803F40033002BF0D100E02F
:104DA00000BF7B681B6803F00203002B63D04C4BF1
:104DB0005B6803F00C03002B0BD0494B5B6803F0DE
:104DC0000C03082B1CD1464B5B6803F48033002B8B
:104DD00016D1434B1B6803F00203002B05D07B6800
:104DE0001B69012B01D00123C0E13D4B1B6823F05F
:104DF000F8027B685B69DB00394913430B603AE0DA
:104E00007B681B69002B20D0364B01221A60FDF70E
:104E100087FD386108E0FDF783FD02463B69D31A40
:104E2000022B01D90323A1E12D4B1B6803F00203E0
:104E3000002BF0D02A4B1B6823F0F8027B685B69DB
:104E4000DB00274913430B6015E0264B00221A6054
:104E5000FDF766FD386108E0FDF762FD02463B693B
:104E6000D31A022B01D9032380E11D4B1B6803F0E9
:104E70000203002BF0D17B681B6803F00803002BB2
:104E80003AD07B689B69002B19D0174B01221A601E
:104E9000FDF746FD386108E0FDF742FD02463B693B
:104EA000D31A022B01D9032360E10D4B5B6A03F097
:104EB0000203002BF0D0012000F0CEFA1CE00A4BD8
:104EC00000221A60FDF72CFD38610FE0FDF728FD88
:104ED00002463B69D31A022B08D9032346E100BFDF
:104EE000001002400000424280044242924B5B6A42
:104EF00003F00203002BE9D17B681B6803F0040375
:104F0000002B00F0A6800023FB758B4BDB6903F0C0
:104F10008053002B0DD1884BDB69874A43F08053C7
:104F2000D361854BDB6903F08053BB60BB68012311
:104F3000FB75824B1B6803F48073002B18D17F4BE9
:104F40001B687E4A43F480731360FDF7E9FC386107
:104F500008E0FDF7E5FC02463B69D31A642B01D952
:104F6000032303E1754B1B6803F48073002BF0D01F
:104F70007B68DB68012B06D16F4B1B6A6E4A43F0DE
:104F8000010313622DE07B68DB68002B0CD16A4BB8
:104F90001B6A694A23F001031362674B1B6A664A66
:104FA00023F0040313621CE07B68DB68052B0CD143
:104FB000614B1B6A604A43F0040313625E4B1B6A39
:104FC0005D4A43F0010313620BE05B4B1B6A5A4AD4
:104FD00023F001031362584B1B6A574A23F0040362
:104FE00013627B68DB68002B15D0FDF799FC3861F4
:104FF0000AE0FDF795FC02463B69D31A41F288327C
:10500000934201D90323B1E04B4B1B6A03F0020327
:10501000002BEED014E0FDF783FC38610AE0FDF7C9
:105020007FFC02463B69D31A41F28832934201D990
:1050300003239BE0404B1B6A03F00203002BEED1DD
:10504000FB7D012B05D13C4BDB693B4A23F08053B0
:10505000D3617B68DB69002B00F08780364B5B688F
:1050600003F00C03082B61D07B68DB69022B46D16F
:10507000334B00221A60FDF753FC386108E0FDF75E
:105080004FFC02463B69D31A022B01D903236DE082
:10509000294B1B6803F00073002BF0D17B681B6A5F
:1050A000B3F5803F08D1244B5B6823F400327B6862
:1050B0009B68214913434B601F4B5B6823F47412B8
:1050C0007B68196A7B685B6A0B431B4913434B601F
:1050D0001B4B01221A60FDF723FC386108E0FDF745
:1050E0001FFC02463B69D31A022B01D903233DE082
:1050F000114B1B6803F00073002BF0D035E0104B10
:1051000000221A60FDF70CFC386108E0FDF708FC8E
:1051100002463B69D31A022B01D9032326E0064B32
:105120001B6803F00073002BF0D11EE07B68DB6985
:10513000012B07D1012319E000100240007000404C
:10514000600042420B4B5B68FB60FB6803F48032FB
:105150007B681B6A9A4206D1FB6803F470127B6875
:105160005B6A9A4201D0012300E0002318461837F9
:10517000BD4680BD0010024080B584B000AF7860AD
:1051800039607B68002B01D10123D0E06A4B1B689A
:1051900003F007033A689A4210D9674B1B6823F063
:1051A000070265493B6813430B60634B1B6803F0C0
:1051B00007033A689A4201D00123B8E07B681B6874
:1051C00003F00203002B20D07B681B6803F004036C
:1051D000002B05D0594B5B68584A43F4E063536099
:1051E0007B681B6803F00803002B05D0534B5B68FA
:1051F000524A43F460535360504B5B6823F0F00213
:105200007B689B684D4913434B607B681B6803F0C8
:105210000103002B40D07B685B68012B07D1474B13
:105220001B6803F40033002B15D101237FE07B685A
:105230005B68022B07D1414B1B6803F00073002B06
:1052400009D1012373E03D4B1B6803F00203002BDF
:1052500001D101236BE0394B5B6823F003027B68CB
:105260005B68364913434B60FDF75AFBF8600AE070
:10527000FDF756FB0246FB68D31A41F2883293428F
:1052800001D9032353E02D4B5B6803F00C027B68CC
:105290005B689B009A42EBD1274B1B6803F0070326
:1052A0003A689A4210D2244B1B6823F00702224925
:1052B0003B6813430B60204B1B6803F007033A68FD
:1052C0009A4201D0012332E07B681B6803F004039B
:1052D000002B08D0194B5B6823F4E0627B68DB6825
:1052E000164913434B607B681B6803F00803002BCF
:1052F00009D0124B5B6823F460527B681B69DB00AA
:105300000E4913434B6000F021F802460B4B5B68DB
:105310001B0903F00F030A49CB5C22FA03F3094A85
:105320001360094B1B681846FDF7B8FA00231846AE
:105330001037BD4680BD00BF002002400010024073
:1053400034910008040000200800002080B487B0D9
:1053500000AF0023FB600023BB6000237B610023C0
:105360007B6000233B611E4B5B68FB60FB6803F0C6
:105370000C03042B02D0082B03D027E0194B3B6110
:1053800027E0FB689B0C03F00F03174AD35C7B609C
:10539000FB6803F48033002B10D0114B5B685B0C6F
:1053A00003F00103114AD35CBB607B680D4A03FB29
:1053B00002F2BB68B2FBF3F37B6104E07B680C4A4A
:1053C00002FB03F37B617B693B6102E0054B3B61C0
:1053D00000BF3B6918461C37BD4680BC704700BF04
:1053E0000010024000127A004C9100085C91000805
:1053F00000093D0080B400AF024B1B681846BD4653
:1054000080BC70470400002080B500AFFFF7F2FFBA
:105410000246054B5B681B0A03F007030349CB5C9C
:1054200022FA03F3184680BD0010024044910008A0
:1054300080B500AFFFF7DEFF0246054B5B68DB0A75
:1054400003F007030349CB5C22FA03F3184680BD3F
:10545000001002404491000880B485B000AF78602D
:105460000A4B1B680A4AA2FB03235B0A7A6802FB09
:1054700003F3FB6000BFFB685A1EFA60002BF9D1F2
:1054800000BF00BF1437BD4680BC70470400002039
:10549000D34D621080B586B000AF786000233B61C9
:1054A0000023FB607B681B6803F00103002B7DD0A9
:1054B0000023FB754F4BDB6903F08053002B0DD1AC
:1054C0004C4BDB694B4A43F08053D361494BDB695A
:1054D00003F08053BB60BB680123FB75464B1B6820
:1054E00003F48073002B18D1434B1B68424A43F4EA
:1054F00080731360FDF714FA386108E0FDF710FAC5
:1055000002463B69D31A642B01D903236DE03A4B61
:105510001B6803F48073002BF0D0364B1B6A03F436
:105520004073FB60FB68002B2ED07B685B6803F444
:105530004073FA689A4227D02E4B1B6A23F44073BB
:10554000FB602E4B01221A602C4B00221A60294A64
:10555000FB681362FB6803F00103002B14D0FDF716
:10556000DFF938610AE0FDF7DBF902463B69D31A3F
:1055700041F28832934201D9032336E01D4B1B6A66
:1055800003F00203002BEED01A4B1B6A23F4407287
:105590007B685B68174913430B62FB7D012B05D1C8
:1055A000144BDB69134A23F08053D3617B681B687B
:1055B00003F00203002B08D00E4B5B6823F440423B
:1055C0007B689B680B4913434B607B681B6803F047
:1055D0001003002B08D0074B5B6823F480027B6824
:1055E000DB68044913434B60002318461837BD4657
:1055F00080BD00BF001002400070004040044242E5
:1056000080B588B000AF786000237B610023FB6128
:1056100000233B610023FB600023BB617B68102BF0
:105620000AD07B68102B00F28A807B68012B45D062
:105630007B68022B75D082E0464B5B68FB60454B74
:105640001B6803F08073002B7BD0FB689B0C03F07E
:105650000F03414AD35C3B61FB6803F48033002BAA
:1056600015D03C4B5B685B0C03F001033B4AD35CF9
:105670007B61FB6803F48033002B0DD0384A7B69D3
:10568000B2FBF3F23B6902FB03F3FB6104E03B690D
:10569000344A02FB03F3FB612E4B5B6803F4800387
:1056A000B3F5800F02D1FB69BB614AE0FB695B0087
:1056B0002D4AA2FB03235B08BB6142E0254B1B6A1A
:1056C000FB60FB6803F44073B3F5807F08D1FB688F
:1056D00003F00203002B03D04FF40043BB611FE033
:1056E000FB6803F44073B3F5007F09D1194B5B6A83
:1056F00003F00203002B03D049F64043BB610FE0E7
:10570000FB6803F44073B3F5407F1CD1114B1B6859
:1057100003F40033002B16D04FF22443BB6112E098
:1057200011E0FFF785FE02460A4B5B689B0B03F016
:10573000030301335B00B2FBF3F3BB6104E000BF82
:1057400002E000BF00E000BFBB6918462037BD463D
:1057500080BD00BF001002406091000870910008F9
:1057600000127A0000093D00ABAAAAAA80B584B055
:1057700000AF78600023FB607B68002B01D1012320
:105780007AE07B685B7CDBB2002B05D17B68002272
:105790001A747868FCF716FE7B6802225A747868DF
:1057A00000F0E0F90346002B04D07B6804225A7411
:1057B000012361E0786800F099FA0346002B04D0D9
:1057C0007B6804225A74012356E07B681B685A6880
:1057D0007B681B6822F007025A607B689B68002B7D
:1057E00005D0274B1B6B264A23F001031363244B80
:1057F000DB6A23F460727B689B6821491343CB62A8
:105800007B685B68B3F1FF3F03D07B685B68FB603C
:105810000EE00120FFF7F4FEF860FB68002B04D1D6
:105820007B6804225A74012326E0FB68013BFB607D
:10583000FB681A0C7B681B6802F00F029A607B6899
:105840001B68FA6892B2DA60786800F077FA03466B
:10585000002B04D07B6804225A7401230CE07B687F
:105860000022DA737B6801225A737B6801229A73E3
:105870007B6801225A74002318461037BD4680BD4C
:10588000006C004090B587B000AFF860B9607A60F6
:1058900000237B6100233B61FB68002B02D0BB68C7
:1058A000002B01D1012380E0FB681B7C012B01D17F
:1058B00002237AE0FB6801221A74FB6802225A7400
:1058C0007B68002B13D1BB681B781A464FF46163C9
:1058D00003FB02F2BB685B7819460B461B015B1A9F
:1058E0009B001344BA68927813447B611EE0BB6846
:1058F0001B78184600F067FA03461A464FF46163B6
:1059000003FB02F4BB685B78184600F05CFA0346C0
:105910001A4613461B019B1A9B001C44BB689B78CC
:10592000184600F050FA034623447B617969F86811
:1059300000F075F90346002B07D0FB6804225A7467
:10594000FB6800221A7401232FE0FB681B685A6869
:10595000FB681B6822F005025A60F86800F086F9BF
:1059600038613B69B3F1FF3F18D03A697B699A42CD
:1059700014D23B6903F5A83303F5C0733B61396961
:10598000F86800F08CF90346002B07D0FB6804226E
:105990005A74FB6800221A74012306E0FB68012296
:1059A0005A74FB6800221A74002318461C37BD463F
:1059B00090BD000080B588B000AFF860B9607A6033
:1059C0000023BB610023FB6100237B6100233B615B
:1059D000FB68002B02D0BB68002B01D10123B5E08E
:1059E000FB681B685B6803F00403002B01D00123F4
:1059F000ACE0F86800F0E3F8B861BB69554AA2FB77
:105A00000323DB0A3B61BA69524BA3FB0213DB0A97
:105A10004FF4616101FB03F3D31A4F4AA2FB032346
:105A20005B09DAB2BB685A70BB694A4AA2FB03122F
:105A3000D20A4FF4616101FB02F29A1A464BA3FBB2
:105A4000021359090B461B015B1A9B00D11ACAB2FB
:105A5000BB689A703B69172B55D93B693F4AA2FB3B
:105A600003231B097B6139693C4BA3FB01231A0902
:105A700013465B001344DB00CA1AD2B2BB681A702B
:105A8000F86800F0F3F8F861FB69B3F1FF3F08D064
:105A9000FA69BB699A4204D9FA69BB69D31AFB61F6
:105AA00002E04FF0FF33FB617B692D4A02FB03F3F9
:105AB000BA69D31ABB61B969F86800F0B0F8034657
:105AC000002B01D0012341E0FB69B3F1FF3F0CD073
:105AD000FA69BB691344FB61F969F86800F0DFF803
