:020000040800F2
:1000000000500020090B0008110A0008190A000816
:10001000210A0008290A0008310A0008000000002F
:10002000000000000000000000000000390A000885
:10003000450A000800000000510A00085D0A000897
:10004000510B0008510B0008510B0008510B000820
:10005000510B0008510B0008510B0008510B000810
:10006000510B0008510B0008510B0008510B000800
:10007000510B0008510B0008510B0008510B0008F0
:10008000510B0008510B0008510B0008510B0008E0
:10009000510B0008510B0008510B0008510B0008D0
:1000A000510B0008510B0008510B0008510B0008C0
:1000B000510B0008510B0008510B0008510B0008B0
:1000C000510B0008510B0008510B0008510B0008A0
:1000D000510B0008690A00087D0A0008510B00084E
:1000E000510B0008510B0008510B000800000000E4
:1000F0000000000000000000000000000000000000
:0C01000000000000000000005FF808F1A3
:10010C0010B5054C237833B9044B13B10448AFF345
:10011C0000800123237010BD680000200000000047
:10012C00643F000808B5034B1BB103490348AFF308
:10013C00008008BD000000006C000020643F000837
:10014C0080B586B002AF0346FB71FB7923F00F0339
:10015C00FB73FB791B01BB73FB7B43F00C03DBB222
:10016C003B72FB7B43F00803DBB27B72BB7B43F03F
:10017C000C03DBB2BB72BB7B43F00803DBB2FB723C
:10018C00064B186807F108026423009304234E21E0
:10019C0001F0E8F900BF1037BD4680BD000000201B
:1001AC0080B586B002AF0346FB71FB7923F00F03D9
:1001BC00FB73FB791B01BB73FB7B43F00D03DBB2C1
:1001CC003B72FB7B43F00903DBB27B72BB7B43F0DE
:1001DC000D03DBB2BB72BB7B43F00903DBB2FB72DA
:1001EC00064B186807F108026423009304234E2180
:1001FC0001F0B8F900BF1037BD4680BD00000020EB
:10020C0080B582B000AF8020FFF79AFF00237B609F
:10021C0005E02020FFF7C4FF7B6801337B607B681F
:10022C00452BF6DD00BF00BF0837BD4680BD80B54D
:10023C0082B000AF786039607B68002B03D07B689C
:10024C00012B05D009E03B6843F080033B6004E0E0
:10025C003B6843F0C0033B6000BF3B68DBB2184611
:10026C00FFF76EFF00BF0837BD4680BD80B500AFFD
:10027C00322000F0CBFC3020FFF762FF052000F0AD
:10028C00C5FC3020FFF75CFF012000F0BFFC3020E4
:10029C00FFF756FF0A2000F0B9FC2020FFF750FFB3
:1002AC000A2000F0B3FC2820FFF74AFF012000F0E1
:1002BC00ADFC0820FFF744FF012000F0A7FC012053
:1002CC00FFF73EFF012000F0A1FC012000F09EFC96
:1002DC000620FFF735FF012000F098FC0C20FFF7FB
:1002EC002FFF00BF80BD80B582B000AF786006E004
:1002FC007B685A1C7A601B781846FFF751FF7B68A5
:10030C001B78002BF4D100BF00BF0837BD4680BD61
:10031C0080B582B000AF0346FB71084AFB791370BD
:10032C00064B0A225A704FF0FF330522034904484A
:10033C0002F048FB00BF0837BD4680BDB801002065
:10034C002001002080B584B000AF78607B681B680A
:10035C00234A934220D1234B1B78012B03D0214BF2
:10036C001B78022B12D11F4B1B78013BFB601D4BE2
:10037C005B78012B05D11C4AFB68134401221A70CF
:10038C0004E0194AFB68134400221A70052215492F
:10039C00164802F0A2FB1EE07B681B68144A9342CD
:1003AC0019D1144B1A78144B1B789A420ED1124B5C
:1003BC001A78124B1A70124B1A78104B5A704FF065
:1003CC00FF3305220D490F4802F0FCFA05220949BA
:1003DC000C4802F082FB00BF1037BD4680BD00BF49
:1003EC0000380140B0010020D00100202001002085
:1003FC0000440040C001002009000020C80100207A
:10040C00060000206801002080B584B000AF00F029
:10041C009BFB00F089F800F09FF900F049F900F01F
:10042C00C9F800F0F5F800F06DF9FFF71FFFFFF7C2
:10043C00E7FE00210020FFF7FAFE2E48FFF753FFDE
:10044C0000210120FFF7F3FE2B48FFF74CFF05229C
:10045C002A492B4802F041FB05222A492A4802F07E
:10046C003CFB0023FB600DE0284AFB6813441B781F
:10047C001846FFF74DFF40F6B83000F0C7FBFB689D
:10048C000133FB60FB68012BEEDD0023BB60002316
:10049C007B600AE01E4A7B6813441B781A46BB68D3
:1004AC001344BB607B6801337B607B68012BF1DDFF
:1004BC00184B1A78BB68DBB2D31ADAB2164B1A7027
:1004CC00154B1A78154B1B789A42CAD00021012083
:1004DC00FFF7ADFE104B1B781A461149114803F07B
:1004EC008BF81048FFF7FFFE0B4B1A780B4B1A706A
:1004FC00B7E700BF7C3F00088C3F0008B00100202C
:10050C0020010020C0010020680100200400002010
:10051C00D001002007000020060000200800002069
:10052C00903F0008D401002080B590B000AF07F1D7
:10053C00180328220021184603F07EF83B1D0022E8
:10054C001A605A609A60DA601A610123BB614FF439
:10055C008033FB6100233B620123BB6202237B637C
:10056C004FF48033BB634FF4E013FB6307F11803C4
:10057C00184601F04FFB0346002B01D000F01AF98E
:10058C000F237B600223BB600023FB604FF480636E
:10059C003B6100237B613B1D0221184601F0BCFD31
:1005AC000346002B01D000F005F900BF4037BD46D3
:1005BC0080BD000080B500AF124B134A1A60114B7E
:1005CC00124A5A600F4B00229A600E4B0022DA60DE
:1005DC000C4B4FF480421A610A4B00225A61094BB2
:1005EC0000229A61074B0022DA61064B00221A6244
:1005FC00044800F073FE0346002B01D000F0DAF83B
:10060C0000BF80BD8400002000540040A086010083
:10061C0080B586B000AF07F1080300221A605A605B
:10062C009A60DA603B4600221A605A601E4B1F4AE1
:10063C001A601D4B00225A601B4B00229A601A4B09
:10064C004FF6FF72DA60184B00221A61164B00222B
:10065C005A61154B00229A61134801F0EBFE0346D8
:10066C00002B01D000F0A6F84FF48053BB6007F1CB
:10067C00080319460C4801F02CFF0346002B01D04F
:10068C0000F098F800233B6000237B603B46194642
:10069C00054802F0E9F80346002B01D000F08AF877
:1006AC0000BF1837BD4680BDD8000020002C01408B
:1006BC0080B500AF114B124A1A60104B4FF4165212
:1006CC005A600E4B00229A600C4B0022DA600B4BE6
:1006DC0000221A61094B0C225A61084B00229A61C4
:1006EC00064B0022DA61054802F01CF90346002B88
:1006FC0001D000F05FF800BF80BD00BF20010020DA
:10070C000038014080B500AF114B124A1A60104BF3
:10071C004FF416525A600E4B00229A600C4B00227A
:10072C00DA600B4B00221A61094B0C225A61084B00
:10073C0000229A61064B0022DA61054802F0F2F8B9
:10074C000346002B01D000F035F800BF80BD00BF80
:10075C00680100200044004080B485B000AF144B09
:10076C009B69134A43F020039361114B9B6903F07F
:10077C002003FB60FB680E4B9B690D4A43F004039E
:10078C0093610B4B9B6903F00403BB60BB68084B84
:10079C009B69074A43F008039361054B9B6903F07F
:1007AC0008037B607B6800BF1437BD4680BC704774
:1007BC000010024080B400AF72B600BF00BFFDE76E
:1007CC0080B485B000AF154B9B69144A43F001030C
:1007DC009361124B9B6903F00103BB60BB680F4B29
:1007EC00DB690E4A43F08053D3610C4BDB6903F099
:1007FC0080537B607B680A4B5B68FB60FB6823F073
:10080C00E063FB60FB6843F00073FB60044AFB6829
:10081C00536000BF1437BD4680BC704700100240C7
:10082C000000014080B588B000AF786007F110037C
:10083C0000221A605A609A60DA607B681B68154A5D
:10084C00934223D1144B9B69134A43F008039361E1
:10085C00114B9B6903F00803FB60FB68C0233B61F1
:10086C0012237B610323FB6107F1100319460B482C
:10087C0000F0B0FB084BDB69074A43F40013D3616B
:10088C00054BDB6903F40013BB60BB6800BF20376A
:10089C00BD4680BD0054004000100240000C0140D9
:1008AC0080B485B000AF78607B681B68094A9342BE
:1008BC000BD1094B9B69084A43F400639361064BC7
:1008CC009B6903F40063FB60FB6800BF1437BD46F3
:1008DC0080BC7047002C01400010024080B58AB0EB
:1008EC0000AF786007F1180300221A605A609A6012
:1008FC00DA607B681B683F4A93423AD13E4B9B6956
:10090C003D4A43F4804393613B4B9B6903F4804322
:10091C007B617B69384B9B69374A43F004039361D5
:10092C00354B9B6903F004033B613B694FF4007347
:10093C00BB610223FB6103237B6207F11803194699
:10094C002E4800F047FB4FF48063BB610023FB6132
:10095C0000233B6207F118031946284800F03AFBC4
:10096C0000220021252000F04CFA252000F065FA29
:10097C003CE07B681B68224A934237D11E4BDB69F3
:10098C001D4A43F40033D3611B4BDB6903F4003382
:10099C00FB60FB68184B9B69174A43F00403936197
:1009AC00154B9B6903F00403BB60BB680423BB615C
:1009BC000223FB6103237B6207F1180319460F48DE
:1009CC0000F008FB0823BB610023FB6100233B62A2
:1009DC0007F118031946094800F0FCFA002200211F
:1009EC00262000F00EFA262000F027FA00BF283748
:1009FC00BD4680BD00380140001002400008014097
:100A0C000044004080B400AF00BFFDE780B400AFED
:100A1C0000BFFDE780B400AF00BFFDE780B400AFBE
:100A2C0000BFFDE780B400AF00BFFDE780B400AFAE
:100A3C0000BFBD4680BC704780B400AF00BFBD4650
:100A4C0080BC704780B400AF00BFBD4680BC70470F
:100A5C0080B500AF00F0BEF800BF80BD80B500AF20
:100A6C00024802F05FF800BF80BD00BF20010020EB
:100A7C0080B500AF024802F055F800BF80BD00BF42
:100A8C006801002080B586B000AF7860144A154B21
:100A9C00D31A7B617B693B61134B1B68002B02D122
:100AAC00114B124A1A60104B1A687B6813443A694E
:100ABC009A4207D202F0C8FD03460C221A604FF08E
:100ACC00FF3309E0084B1B68FB60074B1A687B6817
:100ADC001344054A1360FB6818461837BD4680BDA1
:100AEC000050002000040000E40100203803002026
:100AFC0080B400AF00BFBD4680BC7047FFF7F8FF65
:100B0C000B480C490C4A002302E0D458C45004335F
:100B1C00C4188C42F9D3094A094C002301E0136034
:100B2C000432A242FBD302F095FDFFF76DFC704737
:100B3C000000002068000020FC3F00086800002036
:100B4C0034030020FEE7000080B500AF084B1B68A3
:100B5C00074A43F010031360032000F047F90F20FD
:100B6C0000F008F8FFF72CFE0023184680BD00BFEC
:100B7C000020024080B582B000AF7860124B1A683A
:100B8C00124B1B7819464FF47A73B3FBF1F3B2FB9B
:100B9C00F3F3184600F05FF90346002B01D0012354
:100BAC000EE07B680F2B0AD8002279684FF0FF30DB
:100BBC0000F027F9064A7B681360002300E001234C
:100BCC0018460837BD4680BD0C00002014000020DC
:100BDC001000002080B400AF054B1B781A46054B63
:100BEC001B681344034A136000BFBD4680BC7047AA
:100BFC0014000020E801002080B400AF024B1B68F9
:100C0C001846BD4680BC7047E801002080B584B012
:100C1C0000AF7860FFF7F0FFB8607B68FB60FB68A3
:100C2C00B3F1FF3F05D00A4B1B781A46FB681344FF
:100C3C00FB6000BFFFF7E0FF0246BB68D31AFA68FF
:100C4C009A42F7D800BF00BF1037BD4680BD00BF29
:100C5C001400002080B485B000AF78607B6803F08E
:100C6C000703FB600C4BDB68BB60BA684FF6FF03F5
:100C7C001340BB60FB681A02BB68134343F0BF63AD
:100C8C0043F40033BB60044ABB68D36000BF143725
:100C9C00BD4680BC704700BF00ED00E080B400AFE3
:100CAC00044BDB681B0A03F007031846BD4680BCE7
:100CBC00704700BF00ED00E080B483B000AF034686
:100CCC00FB7197F90730002B0BDBFB7903F01F024C
:100CDC00064997F907305B09012000FA02F241F846
:100CEC00232000BF0C37BD4680BC704700E100E0FC
:100CFC0080B483B000AF03463960FB7197F90730BD
:100D0C00002B0ADB3B68DAB20C4997F90730120169
:100D1C00D2B20B4483F800230AE03B68DAB20849EC
:100D2C00FB7903F00F03043B1201D2B20B441A7689
:100D3C0000BF0C37BD4680BC704700BF00E100E02F
:100D4C0000ED00E080B489B000AFF860B9607A6063
:100D5C00FB6803F00703FB61FB69C3F10703042B7A
:100D6C0028BF0423BB61FB690433062B02D9FB6942
:100D7C00033B00E000237B614FF0FF32BB6902FABA
:100D8C0003F3DA43BB681A407B699A404FF0FF319A
:100D9C007B6901FA03F3D9437B680B401343184674
:100DAC002437BD4680BC704780B582B000AF7860F8
:100DBC007B68013BB3F1807F01D301230FE00A4A2A
:100DCC007B68013B53600F214FF0FF30FFF790FF22
:100DDC00054B00229A60044B07221A600023184628
:100DEC000837BD4680BD00BF10E000E080B582B082
:100DFC0000AF78607868FFF72DFF00BF0837BD465D
:100E0C0080BD80B586B000AF0346B9607A60FB73D5
:100E1C0000237B61FFF742FF78617A68B9687869D3
:100E2C00FFF790FF024697F90F3011461846FFF76F
:100E3C005FFF00BF1837BD4680BD80B582B000AFE4
:100E4C000346FB7197F907301846FFF735FF00BFD3
:100E5C000837BD4680BD80B582B000AF7860786839
:100E6C00FFF7A2FF034618460837BD4680BD80B485
:100E7C0085B000AF78600023FB737B6893F821305A
:100E8C00DBB2022B08D07B6804229A637B680022B9
:100E9C0083F82020012320E07B681B681A687B689C
:100EAC001B6822F00E021A607B681B681A687B684C
:100EBC001B6822F001021A607B681A6C7B68DB6B82
:100ECC00012101FA02F25A607B68012283F8212089
:100EDC007B68002283F82020FB7B18461437BD4624
:100EEC0080BC704780B584B000AF78600023FB7382
:100EFC007B6893F82130DBB2022B05D07B6804228F
:100F0C009A630123FB7351E07B681B681A687B684A
:100F1C001B6822F00E021A607B681B681A687B68DB
:100F2C001B6822F001021A607B681B68224A9342FC
:100F3C0029D07B681B68214A934222D07B681B68AE
:100F4C001F4A93421AD07B681B681E4A934212D0E8
:100F5C007B681B681C4A93420AD07B681B681B4A3F
:100F6C00934202D14FF480130EE04FF080730BE0EC
:100F7C004FF4803308E04FF4805305E04FF4807356
:100F8C0002E0102300E00123114A53607B68012228
:100F9C0083F821207B68002283F820207B685B6B20
:100FAC00002B03D07B685B6B78689847FB7B1846FB
:100FBC001037BD4680BD00BF080002401C00024037
:100FCC003000024044000240580002406C000240D5
:100FDC000000024080B48BB000AF78603960002311
:100FEC007B6200233B6269E101227B6A02FA03F314
:100FFC00FB613B681B68FA691340BB61BA69FB690A
:10100C009A4240F058813B685B689A4A93425ED0A2
:10101C00984A934275D8984A934258D0964A93422C
:10102C006FD8964A934252D0944A934269D8944AC4
:10103C0093424CD0924A934263D8924A934246D000
:10104C00904A93425DD8122B2AD8122B59D801A260
:10105C0052F823F0DB100008B5100008C710000888
:10106C00091100080F1100080F1100080F110008DA
:10107C000F1100080F1100080F1100080F110008C4
:10108C000F1100080F1100080F1100080F110008B4
:10109C000F1100080F110008BD100008D110000836
:1010AC00794A934213D02CE03B68DB683B6229E021
:1010BC003B68DB6804333B6224E03B68DB68083345
:1010CC003B621FE03B68DB680C333B621AE03B6819
:1010DC009B68002B02D104233B6213E03B689B68A6
:1010EC00012B05D108233B627B68FA691A6109E080
:1010FC0008233B627B68FA695A6103E000233B6278
:10110C0000E000BFBB69FF2B01D87B6801E07B6866
:10111C0004337B61BB69FF2B02D87B6A9B0002E026
:10112C007B6A083B9B003B617B691A680F213B691A
:10113C0001FA03F3DB431A40396A3B6901FA03F302
:10114C001A437B691A603B685B6803F08053002B81
:10115C0000F0B1804D4B9B694C4A43F00103936105
:10116C004A4B9B6903F00103BB60BB68484A7B6A2E
:10117C009B08023352F82330FB607B6A03F00303B5
:10118C009B000F2202FA03F3DB43FA681340FB6067
:10119C007B68404A934213D07B683F4A93420DD000
:1011AC007B683E4A934207D07B683D4A934201D10B
:1011BC00032306E0042304E0022302E0012300E001
:1011CC0000237A6A02F0030292009340FA681343F8
:1011DC00FB602F497B6A9B080233FA6841F8232095
:1011EC003B685B6803F48013002B06D02D4B9A6888
:1011FC002C49BB6913438B6006E02A4B9A68BB6988
:10120C00DB43284913408B603B685B6803F4001395
:10121C00002B06D0234BDA682249BB691343CB6001
:10122C0006E0204BDA68BB69DB431E491340CB60F8
:10123C003B685B6803F40033002B06D0194B5A68EB
:10124C001849BB6913434B6006E0164B5A68BB69DF
:10125C00DB43144913404B603B685B6803F48033F9
:10126C00002B21D00F4B1A680E49BB6913430B603E
:10127C0021E000BF000032100000311000002210ED
:10128C00000021100000121000001110001002408C
:10129C000000014000080140000C0140001001401A
:1012AC0000140140000401400B4B1A68BB69DB437E
:1012BC00094913400B607B6A01337B623B681A68F7
:1012CC007B6A22FA03F3002B7FF48EAE00BF00BFC3
:1012DC002C37BD4680BC70470004014080B584B0FB
:1012EC0000AF78607B68002B01D101232BE17B6878
:1012FC0093F83D30DBB2002B06D17B68002283F8DB
:10130C003C207868FFF78EFA7B68242283F83D2016
:10131C007B681B681A687B681B6822F001021A60E4
:10132C007B681B681A687B681B6842F400421A6071
:10133C007B681B681A687B681B6822F400421A6081
:10134C0001F032F8F8607B685B68814A934207D8F9
:10135C00FB68804A934294BF01230023DBB206E072
:10136C00FB687D4A934294BF01230023DBB2002B20
:10137C0001D00123E7E0FB68784AA2FB03239B0C16
:10138C00BB607B681B685B6823F03F017B681B6854
:10139C00BA680A435A607B681B681B6A23F03F01DA
:1013AC007B685B686A4A934202D8BB68013309E0E8
:1013BC00BB684FF4967202FB03F3694AA2FB03234A
:1013CC009B0901337A6812680B4313627B681B68B4
:1013DC00DB6923F44F4222F0FF027B685B685C49B7
:1013EC008B4219D8FB68591E7B685B685B00B1FBAC
:1013FC00F3F3591C40F6FC730B40002B0AD0FB682E
:10140C00591E7B685B685B00B1FBF3F30133C3F3DC
:10141C000B0351E004234FE07B689B68002B11D138
:10142C00FB68581E7B6859680B465B000B44B0FB8D
:10143C00F3F30133C3F30B03002B0CBF0123002385
:10144C00DBB212E0FB68581E7B6859680B469B00A8
:10145C000B4499000B44B0FBF3F30133C3F30B03C0
:10146C00002B0CBF01230023DBB2002B01D0012386
:10147C0022E07B689B68002B0ED1FB68581E7B68B2
:10148C0059680B465B000B44B0FBF3F30133C3F319
:10149C000B0343F400430FE0FB68581E7B6859684C
:1014AC000B469B000B4499000B44B0FBF3F3013348
:1014BC00C3F30B0343F44043796809681343CB61CE
:1014CC007B681B681B6823F0C0017B68DA697B684A
:1014DC001B6A1A437B681B680A431A607B681B688B
:1014EC009B6823F4034323F0FF037A6811697A683D
:1014FC00D26811437A6812680B4393607B681B684F
:10150C00DB6823F0FF017B685A697B689B691A438F
:10151C007B681B680A43DA607B681B681A687B6807
:10152C001B6842F001021A607B6800221A647B6817
:10153C00202283F83D207B6800221A637B680022FE
:10154C0083F83E20002318461037BD4680BD00BFEF
:10155C00A08601007F841E00FF083D0083DE1B4334
:10156C00D34D621080B588B002AFF8607A601A462D
:10157C000B467B8113463B81FFF73EFB7861FB6892
:10158C0093F83D30DBB2202B40F0E0807B69009378
:10159C00192301227049F86800F064F90346002B06
:1015AC0001D00223D3E0FB6893F83C30012B01D12E
:1015BC000223CCE0FB68012283F83C20FB681B680B
:1015CC001B6803F00103012B07D0FB681B681A682A
:1015DC00FB681B6842F001021A60FB681B681A6802
:1015EC00FB681B6822F400621A60FB68212283F8F6
:1015FC003D20FB68102283F83E20FB6800221A6411
:10160C00FB687A685A62FB683A895A85FB685B8D7D
:10161C009AB2FB681A85FB68504ADA6279897B6951
:10162C003A6AF86800F09CF80346002B01D00123BD
:10163C008DE000233B61FB681B685B693B61FB68C9
:10164C001B689B693B613B6966E07A69396AF8689B
:10165C0000F022FA0346002B0DD0FB681B6C042B08
:10166C0007D1FB681B681A68FB681B6842F40072A0
:10167C001A6001236BE0FB685B6A1A78FB681B68D5
:10168C001A61FB685B6A5A1CFB685A62FB685B8DCB
:10169C009BB2013B9AB2FB685A85FB681B8D013BE0
:1016AC009AB2FB681A85FB681B685B6903F004033C
:1016BC00042B1BD1FB681B8D002B17D0FB685B6ABE
:1016CC001A78FB681B681A61FB685B6A5A1CFB681A
:1016DC005A62FB685B8D9BB2013B9AB2FB685A85E0
:1016EC00FB681B8D013B9AB2FB681A857A69396AD3
:1016FC00F86800F019FA0346002B0DD0FB681B6C40
:10170C00042B07D1FB681B681A68FB681B6842F442
:10171C0000721A6001231AE0FB681B8D002B94D118
:10172C00FB681B681A68FB681B6842F400721A603D
:10173C00FB68202283F83D20FB68002283F83E20C2
:10174C00FB68002283F83C20002300E002231846AB
:10175C001837BD4680BD00BF020010000000FFFF1F
:10176C0080B588B002AFF8607A603B600B467B8135
:10177C00FB68DB6A7B617B69082B06D07B69012BDC
:10178C0003D07B6913F5803F08D1FB681B681A688E
:10179C00FB681B6842F480721A600BE0FB681B6BE1
:1017AC00122B07D1FB681B681A68FB681B6842F494
:1017BC0080721A603B6800937B6800224FF0011125
:1017CC00F86800F04FF80346002B0DD0FB681B683F
:1017DC001B6803F48073B3F5807F03D1FB684FF46F
:1017EC0000721A64032335E0FB681B69B3F5804F64
:1017FC0008D17B89DBB21A46FB681B6802F0FE023B
:10180C001A611BE07B89DB11DBB203F00603DBB250
:10181C0063F00F03DAB2FB681B681A613B687A68E5
:10182C000E49F86800F098F80346002B01D001230C
:10183C0010E07B89DAB2FB681B681A613B687A6836
:10184C000749F86800F088F80346002B01D0012303
:10185C0000E0002318461837BD4680BD0800010083
:10186C000200010080B584B000AFF860B9603B6045
:10187C001346FB7148E03B68B3F1FF3F44D0FFF7E0
:10188C00BBF90246BB69D31A3A689A4202D33B6849
:10189C00002B39D1BB681B0CDBB2012B0DD1FB68C3
:1018AC001B685B69DA43BB6813409BB2002B0CBF0F
:1018BC0001230023DBB21A460CE0FB681B689B6912
:1018CC00DA43BB6813409BB2002B0CBF01230023EF
:1018DC00DBB21A46FB799A4216D1FB6800221A63D6
:1018EC00FB68202283F83D20FB68002283F83E2011
:1018FC00FB681B6C43F02002FB681A64FB68002237
:10190C0083F83C20012323E0BB681B0CDBB2012BCA
:10191C000DD1FB681B685B69DA43BB6813409BB253
:10192C00002B0CBF01230023DBB21A460CE0FB6832
:10193C001B689B69DA43BB6813409BB2002B0CBF3E
:10194C0001230023DBB21A46FB799A4293D0002381
:10195C0018461037BD4680BD80B584B000AFF86026
:10196C00B9607A603B6071E0FB681B685B6903F4EB
:10197C008063B3F5806F23D1FB681B681A68FB6822
:10198C001B6842F400721A60FB681B686FF480627B
:10199C005A61FB6800221A63FB68202283F83D2001
:1019AC00FB68002283F83E20FB681B6C43F00402AA
:1019BC00FB681A64FB68002283F83C20012367E073
:1019CC007B68B3F1FF3F41D0FFF716F902463B6845
:1019DC00D31A7A689A4202D37B68002B36D1BB6843
:1019EC001B0CDBB2012B0CD1FB681B685B69DA4367
:1019FC00BB6813409BB2002B14BF01230023DBB246
:101A0C000BE0FB681B689B69DA43BB6813409BB215
:101A1C00002B14BF01230023DBB2002B16D0FB6874
:101A2C0000221A63FB68202283F83D20FB68002209
:101A3C0083F83E20FB681B6C43F02002FB681A64A1
:101A4C00FB68002283F83C20012321E0BB681B0CBF
:101A5C00DBB2012B0CD1FB681B685B69DA43BB68FA
:101A6C0013409BB2002B14BF01230023DBB20BE00D
:101A7C00FB681B689B69DA43BB6813409BB2002B65
:101A8C0014BF01230023DBB2002B7FF46DAF0023C6
:101A9C0018461037BD4680BD80B584B000AFF860E5
:101AAC00B9607A6034E0F86800F086F80346002BE1
:101ABC0001D0012334E0BB68B3F1FF3F28D0FFF71E
:101ACC009BF802467B68D31ABA689A4202D3BB6869
:101ADC00002B1DD1FB681B685B6903F08003802B16
:101AEC0016D0FB6800221A63FB68202283F83D2085
:101AFC00FB68002283F83E20FB681B6C43F020023D
:101B0C00FB681A64FB68002283F83C20012307E081
:101B1C00FB681B685B6903F08003802BC3D1002337
:101B2C0018461037BD4680BD80B584B000AFF86054
:101B3C00B9607A6034E0F86800F03EF80346002B98
:101B4C0001D0012334E0BB68B3F1FF3F28D0FFF78D
:101B5C0053F802467B68D31ABA689A4202D3BB6820
:101B6C00002B1DD1FB681B685B6903F00403042B7D
:101B7C0016D0FB6800221A63FB68202283F83D20F4
:101B8C00FB68002283F83E20FB681B6C43F02002AC
:101B9C00FB681A64FB68002283F83C20012307E0F1
:101BAC00FB681B685B6903F00403042BC3D100239F
:101BBC0018461037BD4680BD80B483B000AF786046
:101BCC007B681B685B6903F48063B3F5806F1BD182
:101BDC007B681B686FF480625A617B6800221A6311
:101BEC007B68202283F83D207B68002283F83E200E
:101BFC007B681B6C43F004027B681A647B680022D0
:101C0C0083F83C20012300E0002318460C37BD4626
:101C1C0080BC704780B586B000AF78607B68002BC5
:101C2C0001D1012372E27B681B6803F00103002BD6
:101C3C0000F08780924B5B6803F00C03042B0CD0F4
:101C4C008F4B5B6803F00C03082B12D18C4B5B6839
:101C5C0003F48033B3F5803F0BD1894B1B6803F43D
:101C6C000033002B6CD07B685B68002B68D10123A0
:101C7C004CE27B685B68B3F5803F06D1804B1B68F8
:101C8C007F4A43F4803313602EE07B685B68002B43
:101C9C000CD17B4B1B687A4A23F480331360784B4E
:101CAC001B68774A23F4802313601DE07B685B6814
:101CBC00B3F5A02F0CD1724B1B68714A43F48023EF
:101CCC0013606F4B1B686E4A43F4803313600BE058
:101CDC006B4B1B686A4A23F480331360684B1B6898
:101CEC00674A23F4802313607B685B68002B13D056
:101CFC00FEF782FF386108E0FEF77EFF02463B6983
:101D0C00D31A642B01D9032300E25D4B1B6803F447
:101D1C000033002BF0D014E0FEF76EFF386108E0C2
:101D2C00FEF76AFF02463B69D31A642B01D90323E1
:101D3C00ECE1534B1B6803F40033002BF0D100E0B3
:101D4C0000BF7B681B6803F00203002B63D04C4B75
:101D5C005B6803F00C03002B0BD0494B5B6803F062
:101D6C000C03082B1CD1464B5B6803F48033002B0F
:101D7C0016D1434B1B6803F00203002B05D07B6884
:101D8C001B69012B01D00123C0E13D4B1B6823F0E3
:101D9C00F8027B685B69DB00394913430B603AE05E
:101DAC007B681B69002B20D0364B01221A60FEF792
:101DBC0023FF386108E0FEF71FFF02463B69D31A88
:101DCC00022B01D90323A1E12D4B1B6803F0020365
:101DDC00002BF0D02A4B1B6823F0F8027B685B6960
:101DEC00DB00274913430B6015E0264B00221A60D9
:101DFC00FEF702FF386108E0FEF7FEFE02463B6983
:101E0C00D31A022B01D9032380E11D4B1B6803F06D
:101E1C000203002BF0D17B681B6803F00803002B36
:101E2C003AD07B689B69002B19D0174B01221A60A2
:101E3C00FEF7E2FE386108E0FEF7DEFE02463B6983
:101E4C00D31A022B01D9032360E10D4B5B6A03F01B
:101E5C000203002BF0D0012000F0CEFA1CE00A4B5C
:101E6C0000221A60FEF7C8FE38610FE0FEF7C4FED0
:101E7C0002463B69D31A022B08D9032346E100BF63
:101E8C00001002400000424280044242924B5B6AC6
:101E9C0003F00203002BE9D17B681B6803F00403F9
:101EAC00002B00F0A6800023FB758B4BDB6903F045
:101EBC008053002B0DD1884BDB69874A43F080534C
:101ECC00D361854BDB6903F08053BB60BB68012396
:101EDC00FB75824B1B6803F48073002B18D17F4B6E
:101EEC001B687E4A43F480731360FEF785FE3861ED
:101EFC0008E0FEF781FE02463B69D31A642B01D938
:101F0C00032303E1754B1B6803F48073002BF0D0A3
:101F1C007B68DB68012B06D16F4B1B6A6E4A43F062
:101F2C00010313622DE07B68DB68002B0CD16A4B3C
:101F3C001B6A694A23F001031362674B1B6A664AEA
:101F4C0023F0040313621CE07B68DB68052B0CD1C7
:101F5C00614B1B6A604A43F0040313625E4B1B6ABD
:101F6C005D4A43F0010313620BE05B4B1B6A5A4A58
:101F7C0023F001031362584B1B6A574A23F00403E6
:101F8C0013627B68DB68002B15D0FEF735FE3861D9
:101F9C000AE0FEF731FE02463B69D31A41F2883261
:101FAC00934201D90323B1E04B4B1B6A03F00203AC
:101FBC00002BEED014E0FEF71FFE38610AE0FEF7AE
:101FCC001BFE02463B69D31A41F28832934201D977
:101FDC0003239BE0404B1B6A03F00203002BEED162
:101FEC00FB7D012B05D13C4BDB693B4A23F0805335
:101FFC00D3617B68DB69002B00F08780364B5B6814
:10200C0003F00C03082B61D07B68DB69022B46D1F3
:10201C00334B00221A60FEF7EFFD386108E0FEF743
:10202C00EBFD02463B69D31A022B01D903236DE069
:10203C00294B1B6803F00073002BF0D17B681B6AE3
:10204C00B3F5803F08D1244B5B6823F400327B68E6
:10205C009B68214913434B601F4B5B6823F474123C
:10206C007B68196A7B685B6A0B431B4913434B60A3
:10207C001B4B01221A60FEF7BFFD386108E0FEF72A
:10208C00BBFD02463B69D31A022B01D903233DE069
:10209C00114B1B6803F00073002BF0D035E0104B94
:1020AC0000221A60FEF7A8FD386108E0FEF7A4FDD7
:1020BC0002463B69D31A022B01D9032326E0064BB7
:1020CC001B6803F00073002BF0D11EE07B68DB690A
:1020DC00012B07D1012319E00010024000700040D1
:1020EC00600042420B4B5B68FB60FB6803F4803280
:1020FC007B681B6A9A4206D1FB6803F470127B68FA
:10210C005B6A9A4201D0012300E00023184618377D
:10211C00BD4680BD0010024080B584B000AF786031
:10212C0039607B68002B01D10123D0E06A4B1B681E
:10213C0003F007033A689A4210D9674B1B6823F0E7
:10214C00070265493B6813430B60634B1B6803F044
:10215C0007033A689A4201D00123B8E07B681B68F8
:10216C0003F00203002B20D07B681B6803F00403F0
:10217C00002B05D0594B5B68584A43F4E06353601D
:10218C007B681B6803F00803002B05D0534B5B687E
:10219C00524A43F460535360504B5B6823F0F00297
:1021AC007B689B684D4913434B607B681B6803F04D
:1021BC000103002B40D07B685B68012B07D1474B98
:1021CC001B6803F40033002B15D101237FE07B68DF
:1021DC005B68022B07D1414B1B6803F00073002B8B
:1021EC0009D1012373E03D4B1B6803F00203002B64
:1021FC0001D101236BE0394B5B6823F003027B6850
:10220C005B68364913434B60FEF7F6FCF8600AE056
:10221C00FEF7F2FC0246FB68D31A41F28832934275
:10222C0001D9032353E02D4B5B6803F00C027B6850
:10223C005B689B009A42EBD1274B1B6803F00703AA
:10224C003A689A4210D2244B1B6823F007022249A9
:10225C003B6813430B60204B1B6803F007033A6881
:10226C009A4201D0012332E07B681B6803F004031F
:10227C00002B08D0194B5B6823F4E0627B68DB68A9
:10228C00164913434B607B681B6803F00803002B53
:10229C0009D0124B5B6823F460527B681B69DB002E
:1022AC000E4913434B6000F021F802460B4B5B6860
:1022BC001B0903F00F030A49CB5C22FA03F3094A0A
:1022CC001360094B1B681846FEF754FC0023184694
:1022DC001037BD4680BD00BF0020024000100240F8
:1022EC00943F00080C0000201000002080B487B040
:1022FC0000AF0023FB600023BB6000237B61002345
:10230C007B6000233B611E4B5B68FB60FB6803F04A
:10231C000C03042B02D0082B03D027E0194B3B6194
:10232C0027E0FB689B0C03F00F03174AD35C7B6020
:10233C00FB6803F48033002B10D0114B5B685B0CF3
:10234C0003F00103114AD35CBB607B680D4A03FBAD
:10235C0002F2BB68B2FBF3F37B6104E07B680C4ACE
:10236C0002FB03F37B617B693B6102E0054B3B6144
:10237C0000BF3B6918461C37BD4680BC704700BF88
:10238C000010024000127A00AC3F0008BC3F00086D
:10239C0000093D0080B400AF024B1B681846BD46D7
:1023AC0080BC70470C00002080B500AFFFF7F2FF37
:1023BC000246054B5B681B0A03F007030349CB5C21
:1023CC0022FA03F3184680BD00100240A43F000817
:1023DC0080B500AFFFF7DEFF0246054B5B68DB0AFA
:1023EC0003F007030349CB5C22FA03F3184680BDC4
:1023FC0000100240A43F000880B485B000AF7860A4
:10240C000A4B1B680A4AA2FB03235B0A7A6802FB8D
:10241C0003F3FB6000BFFB685A1EFA60002BF9D176
:10242C0000BF00BF1437BD4680BC70470C000020B5
:10243C00D34D621080B582B000AF78607B68002B02
:10244C0001D1012341E07B6893F83D30DBB2002BD6
:10245C0006D17B68002283F83C207868FEF720FACE
:10246C007B68022283F83D207B681A687B68043302
:10247C001946104600F0F4F87B68012283F84620D8
:10248C007B68012283F83E207B68012283F83F2081
:10249C007B68012283F840207B68012283F841206D
:1024AC007B68012283F842207B68012283F8432059
:1024BC007B68012283F844207B68012283F8452045
:1024CC007B68012283F83D20002318460837BD465F
:1024DC0080BD80B584B000AF786039600023FB7399
:1024EC007B6893F83C30012B01D10223B4E07B686C
:1024FC00012283F83C207B68022283F83D207B6814
:10250C001B689B68BB60BB6823F07703BB60BB6830
:10251C0023F47F43BB607B681B68BA689A603B6896
:10252C001B68B3F5005F3ED0B3F5005F00F2878007
:10253C00B3F5805F00F08680B3F5805F7FD8702B99
:10254C001AD0702B7BD8602B50D0602B77D8502BA7
:10255C003CD0502B73D8402B58D0402B6FD8302BFD
:10256C0064D0302B6BD8202B60D0202B67D8002B5D
:10257C005CD0102B5AD062E07B6818683B68996875
:10258C003B685A683B68DB6800F04FF97B681B6856
:10259C009B68BB60BB6843F07703BB607B681B68C0
:1025AC00BA689A604FE07B6818683B6899683B682A
:1025BC005A683B68DB6800F038F97B681B689A68DE
:1025CC007B681B6842F480429A603CE07B68186828
:1025DC003B6859683B68DB681A4600F0AFF87B68CB
:1025EC001B685021184600F006F92CE07B6818682F
:1025FC003B6859683B68DB681A4600F0CDF87B688D
:10260C001B686021184600F0F6F81CE07B6818681F
:10261C003B6859683B68DB681A4600F08FF87B68AA
:10262C001B684021184600F0E6F80CE07B681A683D
:10263C003B681B681946104600F0DDF803E00123E7
:10264C00FB7300E000BF7B68012283F83D207B68B0
:10265C00002283F83C20FB7B18461037BD4680BD1A
:10266C0080B485B000AF786039607B681B68FB6014
:10267C007B682F4A93420BD07B68B3F1804F07D015
:10268C007B682C4A934203D07B682B4A934208D137
:10269C00FB6823F07003FB603B685B68FA681343CC
:1026AC00FB607B68224A93420BD07B68B3F1804F6E
:1026BC0007D07B681F4A934203D07B681E4A934223
:1026CC0008D1FB6823F44073FB603B68DB68FA6855
:1026DC001343FB60FB6823F080023B685B69134388
:1026EC00FB607B68FA681A603B689A687B68DA6200
:1026FC003B681A687B689A627B680D4A934203D1E7
:10270C003B681A697B681A637B6801225A617B6893
:10271C001B6903F00103002B05D07B681B6923F0B8
:10272C0001027B681A6100BF1437BD4680BC70473C
:10273C00002C0140000400400008004080B487B029
:10274C0000AFF860B9607A60FB681B6A7B61FB685C
:10275C001B6A23F00102FB681A62FB689B693B61F0
:10276C003B6923F0F0033B617B681B013A6913431F
:10277C003B617B6923F00A037B617A69BB68134375
:10278C007B61FB683A699A61FB687A691A6200BFDF
:10279C001C37BD4680BC704780B487B000AFF86072
:1027AC00B9607A60FB681B6A7B61FB681B6A23F06B
:1027BC001002FB681A62FB689B693B613B6923F45E
:1027CC0070433B617B681B033A6913433B617B6934
:1027DC0023F0A0037B61BB681B017A6913437B6107
:1027EC00FB683A699A61FB687A691A6200BF1C3708
:1027FC00BD4680BC704780B485B000AF786039604E
:10280C007B689B68FB60FB6823F07003FB603A6895
:10281C00FB68134343F00703FB607B68FA689A601C
:10282C0000BF1437BD4680BC704780B487B000AF82
:10283C00F860B9607A603B60FB689B687B617B6980
:10284C0023F47F437B613B681A027B681A43BB68A5
:10285C0013437A6913437B61FB687A699A6000BF02
:10286C001C37BD4680BC704780B485B000AF786023
:10287C0039607B6893F83C30012B01D1022346E090
:10288C007B68012283F83C207B68022283F83D2080
:10289C007B681B685B68FB607B681B689B68BB6024
:1028AC00FB6823F07003FB603B681B68FA681343FA
:1028BC00FB607B681B68FA685A607B681B68164A69
:1028CC0093420ED07B681B68B3F1804F09D07B68B4
:1028DC001B68124A934204D07B681B68104A9342CF
:1028EC000CD1BB6823F08003BB603B685B68BA68A3
:1028FC001343BB607B681B68BA689A607B680122D3
:10290C0083F83D207B68002283F83C200023184686
:10291C001437BD4680BC7047002C014000040040B9
:10292C000008004080B582B000AF78607B68002B57
:10293C0001D1012342E07B6893F84130DBB2002BDC
:10294C0006D17B68002283F840207868FDF7C6FF2B
:10295C007B68242283F841207B681B68DA687B68DB
:10296C001B6822F40052DA60786800F0B7FD7B68CF
:10297C001B681A697B681B6822F490421A617B6899
:10298C001B685A697B681B6822F02A025A617B68B3
:10299C001B68DA687B681B6842F40052DA607B685B
:1029AC0000225A647B68202283F841207B68202215
:1029BC0083F842207B6800225A63002318460837AC
:1029CC00BD4680BD80B58AB002AFF860B9603B608F
:1029DC001346FB8000237B61FB6893F84130DBB22C
:1029EC00202B75D1BB68002B02D0FB88002B01D1AA
:1029FC0001236EE0FB6800225A64FB68212283F8F5
:102A0C004120FEF7F9F87861FB68FA889A84FB6834
:102A1C00FA88DA84FB689B68B3F5805F08D1FB68A1
:102A2C001B69002B04D10023FB61BB68BB6103E075
:102A3C00BB68FB610023BB612EE03B6800937B69A4
:102A4C0000228021F86800F01CFB0346002B05D007
:102A5C00FB68202283F8412003233AE0FB69002B1A
:102A6C000BD1BB691B881A46FB681B68C2F30802B2
:102A7C005A60BB690233BB6107E0FB691A78FB68DB
:102A8C001B685A60FB690133FB61FB68DB8C9BB2F2
:102A9C00013B9AB2FB68DA84FB68DB8C9BB2002B9F
:102AAC00CBD13B6800937B6900224021F86800F091
:102ABC00E8FA0346002B05D0FB68202283F841205E
:102ACC00032306E0FB68202283F84120002300E06A
:102ADC00022318462037BD4680BD80B584B000AFB8
:102AEC00F860B9601346FB80FB6893F84230DBB2A8
:102AFC00202B12D1BB68002B02D0FB88002B01D1FC
:102B0C0001230BE0FB6800221A63FB881A46B968A4
:102B1C00F86800F00FFB034600E00223184610375C
:102B2C00BD4680BD80B5BAB000AF78607B681B68CD
:102B3C001B68C7F8E4307B681B68DB68C7F8E030BB
:102B4C007B681B685B69C7F8DC300023C7F8D8309A
:102B5C000023C7F8D430D7F8E43003F00F03C7F8DC
:102B6C00D830D7F8D830002B0FD1D7F8E43003F099
:102B7C002003002B09D0D7F8E03003F02003002B02
:102B8C0003D0786800F0ECFB5BE2D7F8D830002B70
:102B9C0000F0DE80D7F8DC3003F00103002B06D107
:102BAC00D7F8E03003F49073002B00F0D180D7F805
:102BBC00E43003F00103002B0BD0D7F8E03003F422
:102BCC008073002B05D07B685B6C43F001027B6843
:102BDC005A64D7F8E43003F00403002B0BD0D7F879
:102BEC00DC3003F00103002B05D07B685B6C43F0F9
:102BFC0002027B685A64D7F8E43003F00203002B1E
:102C0C000BD0D7F8DC3003F00103002B05D07B6828
:102C1C005B6C43F004027B685A64D7F8E43003F031
:102C2C000803002B11D0D7F8E03003F02003002B61
:102C3C0005D1D7F8DC3003F00103002B05D07B68FD
:102C4C005B6C43F008027B685A647B685B6C002BFE
:102C5C0000F0F281D7F8E43003F02003002B08D009
:102C6C00D7F8E03003F02003002B02D0786800F096
:102C7C0077FB7B681B685B6903F04003002B14BF78
:102C8C0001230023DBB2C7F8D4307B685B6C03F004
:102C9C000803002B03D1D7F8D430002B4FD0786821
:102CAC0000F081FA7B681B685B6903F04003002B22
:102CBC0041D07B681B681433C7F89C30D7F89C3024
:102CCC0053E8003FC7F89830D7F8983023F040030A
:102CDC00C7F8D0307B681B681433D7F8D020C7F8FE
:102CEC00A820C7F8A430D7F8A410D7F8A82041E83A
:102CFC000023C7F8A030D7F8A030002BD9D17B68BF
:102D0C00DB6B002B13D07B68DB6B7E4A5A637B68D2
:102D1C00DB6B1846FEF7E6F80346002B16D07B68F3
:102D2C00DB6B5B6B7A68D26B104698470EE0786869
:102D3C0000F093F90AE0786800F08FF906E0786803
:102D4C0000F08BF97B6800225A6475E100BF73E1D7
:102D5C007B681B6B012B40F04F81D7F8E43003F0FC
:102D6C001003002B00F04881D7F8E03003F010037B
:102D7C00002B00F041810023BB607B681B681B6843
:102D8C00BB607B681B685B68BB60BB687B681B684F
:102D9C005B6903F04003002B00F0B6807B68DB6BB3
:102DAC001B685B68A7F8BE30B7F8BE30002B00F08C
:102DBC0045817B689B8DB7F8BE209A4280F03E819E
:102DCC007B68B7F8BE20DA857B68DB6B9B69202BB0
:102DDC0000F088807B681B680C33C7F88830D7F804
:102DEC00883053E8003FC7F88430D7F8843023F498
:102DFC008073C7F8B8307B681B680C33D7F8B820E1
:102E0C00C7F89420C7F89030D7F89010D7F89420D2
:102E1C0041E80023C7F88C30D7F88C30002BD9D17F
:102E2C007B681B6814337B677B6F53E8003F3B6701
:102E3C003B6F23F00103C7F8B4307B681B68143375
:102E4C00D7F8B420C7F88020FB67F96FD7F880203B
:102E5C0041E80023BB67BB6F002BE1D17B681B688B
:102E6C0014333B663B6E53E8003FFB65FB6D23F070
:102E7C004003C7F8B0307B681B681433D7F8B02018
:102E8C00FA66BB66B96EFA6E41E800237B667B6E10
:102E9C00002BE3D17B68202283F842207B68002240
:102EAC001A637B681B680C33FB64FB6C53E8003FB4
:102EBC00BB64BB6C23F01003C7F8AC307B681B6899
:102ECC000C33D7F8AC20BA657B65796DBA6D41E8E7
:102EDC0000233B653B6D002BE3D17B68DB6B184615
:102EEC00FDF7C5FF7B6802225A637B689A8D7B686D
:102EFC00DB8D9BB2D31A9BB21946786800F0B6F8FA
:102F0C009CE000BF773200087B689A8D7B68DB8D74
:102F1C009BB2D31AA7F8CE307B68DB8D9BB2002B0B
:102F2C0000F08E80B7F8CE30002B00F089807B68E3
:102F3C001B680C33BB63BB6B53E8003F7B637B6B41
:102F4C0023F49073C7F8C8307B681B680C33D7F830
:102F5C00C8207A643B64396C7A6C41E80023FB63CB
:102F6C00FB6B002BE3D17B681B6814337B627B6AA1
:102F7C0053E8003F3B623B6A23F00103C7F8C430BF
:102F8C007B681B681433D7F8C4203A63FB62F96A78
:102F9C003A6B41E80023BB62BB6A002BE3D17B6830
:102FAC00202283F842207B6800221A637B681B680E
:102FBC000C333B613B6953E8003FFB60FB6823F03B
:102FCC001003C7F8C0307B681B680C33D7F8C020DF
:102FDC00FA61BB61B969FA6941E800237B617B69DD
:102FEC00002BE3D17B6802225A63B7F8CE30194626
:102FFC00786800F03BF823E0D7F8E43003F0800366
:10300C00002B09D0D7F8E03003F08003002B03D05D
:10301C00786800F03EF914E0D7F8E43003F0400390
:10302C00002B0ED0D7F8E03003F04003002B08D073
:10303C00786800F07DF904E000BF02E000BF00E01A
:10304C0000BFE837BD4680BD80B483B000AF786068
:10305C0000BF0C37BD4680BC704780B483B000AF56
:10306C00786000BF0C37BD4680BC704780B483B01D
:10307C0000AF78600B467B8000BF0C37BD4680BC30
:10308C00704780B586B000AFF860B9603B601346FE
:10309C00FB713BE03B6AB3F1FF3F37D0FDF7ACFD72
:1030AC0002463B68D31A3A6A9A4202D33B6A002B17
:1030BC0001D103233AE0FB681B68DB6803F00403CF
:1030CC00002B23D0BB68802B20D0BB68402B1DD09D
:1030DC00FB681B681B6803F00803082B16D1002340
:1030EC007B61FB681B681B687B61FB681B685B680A
:1030FC007B617B69F86800F056F8FB6808225A641B
:10310C00FB68002283F8402001230FE0FB681B685A
:10311C001A68BB681340BA689A420CBF012300239B
:10312C00DBB21A46FB799A42B4D000231846183702
:10313C00BD4680BD80B485B000AFF860B960134661
:10314C00FB80FB68BA689A62FB68FA889A85FB6810
:10315C00FA88DA85FB6800225A64FB68222283F81D
:10316C004220FB681B69002B07D0FB681B68DA68E0
:10317C00FB681B6842F48072DA60FB681B685A6952
:10318C00FB681B6842F001025A61FB681B68DA6835
:10319C00FB681B6842F02002DA60002318461437E3
:1031AC00BD4680BC704780B495B000AF78607B683A
:1031BC001B680C337B637B6B53E8003F3B633B6BBF
:1031CC0023F49073FB647B681B680C33FA6C3A64D1
:1031DC00FB63F96B3A6C41E80023BB63BB6B002BC0
:1031EC00E5D17B681B6814333B623B6A53E8003FB4
:1031FC00FB61FB6923F00103BB647B681B68143320
:10320C00BA6CFA62BB62B96AFA6A41E800237B6263
:10321C007B6A002BE5D17B681B6B012B19D17B687A
:10322C001B680C33FB60FB6853E8003FBB60BB685A
:10323C0023F010037B647B681B680C337A6CBA61D7
:10324C007B617969BA6941E800233B613B69002BDA
:10325C00E5D17B68202283F842207B6800221A6328
:10326C0000BF5437BD4680BC704780B584B000AFFA
:10327C0078607B685B6AFB60FB680022DA85FB6820
:10328C000022DA84F868FFF7E8FE00BF1037BD466D
:10329C0080BD80B485B000AF78607B6893F8413016
:1032AC00DBB2212B3ED17B689B68B3F5805F14D1D8
:1032BC007B681B69002B10D17B681B6AFB60FB6869
:1032CC001B881A467B681B68C2F308025A607B682D
:1032DC001B6A9A1C7B681A6208E07B681B6A591C83
:1032EC007A6811621A787B681B685A607B68DB8C81
:1032FC009BB2013B9BB27A681946D184002B0FD14B
:10330C007B681B68DA687B681B6822F08002DA60D5
:10331C007B681B68DA687B681B6842F04002DA60E5
:10332C00002300E0022318461437BD4680BC7047CA
:10333C0080B582B000AF78607B681B68DA687B6808
:10334C001B6822F04002DA607B68202283F841205F
:10335C007868FFF779FE002318460837BD4680BD14
:10336C0080B58CB000AF78607B6893F84230DBB2EC
:10337C00222B40F0AE807B689B68B3F5805F17D141
:10338C007B681B69002B13D10023FB627B689B6A53
:10339C00BB627B681B685B689BB2C3F308039AB281
:1033AC00BB6A1A807B689B6A9A1C7B689A6226E0CF
:1033BC007B689B6AFB620023BB627B689B68B3F5EE
:1033CC00805F07D07B689B68002B0AD17B681B69E8
:1033DC00002B06D17B681B685B68DAB2FB6A1A703B
:1033EC0008E07B681B685B68DBB203F07F03DAB232
:1033FC00FB6A1A707B689B6A5A1C7B689A627B68B2
:10340C00DB8D9BB2013B9BB27A681946D185002BB0
:10341C005DD17B681B68DA687B681B6822F0200230
:10342C00DA607B681B68DA687B681B6822F4807240
:10343C00DA607B681B685A697B681B6822F00102A2
:10344C005A617B68202283F842207B6800225A63F1
:10345C007B681B6B012B35D17B6800221A637B6860
:10346C001B680C337B617B6953E8003F3B613B6914
:10347C0023F010037B627B681B680C337A6A3A6218
:10348C00FB61F9693A6A41E80023BB61BB69002B17
:10349C00E5D17B681B681B6803F01003102B0AD165
:1034AC000023FB607B681B681B68FB607B681B68E8
:1034BC005B68FB60FB687B689B8D19467868FFF73F
:1034CC00D5FD02E07868FCF73DFF002302E0002305
:1034DC0000E0022318463037BD4680BD80B584B06D
:1034EC0000AF78607B681B681B6923F440517B68D4
:1034FC00DA687B681B680A431A617B689A687B6888
:10350C001B691A437B685B691343BB607B681B6850
:10351C00DB6823F4B05323F00C037A681268B968A3
:10352C000B43D3607B681B685B6923F440717B6839
:10353C009A697B681B680A435A617B681B682C4A32
:10354C00934203D1FEF744FFF86002E0FEF72CFF34
:10355C00F860FA6813469B0013449A001A447B687F
:10356C005B689B00B2FBF3F3224AA2FB03235B09CB
:10357C001901FA6813469B0013449A001A447B689D
:10358C005B689B00B2FBF3F21A4BA3FB02035B09D3
:10359C00642000FB03F3D31A1B013233154AA2FB40
:1035AC0003235B0903F0F0031944FA6813469B00EC
:1035BC0013449A001A447B685B689B00B2FBF3F2DD
:1035CC000C4BA3FB02035B09642000FB03F3D31A2F
:1035DC001B013233074AA2FB03235B0903F00F02E2
:1035EC007B681B680A449A6000BF1037BD4680BDDB
:1035FC00003801401F85EB510EB46FF0004100B54F
:10360C009CB01DAB029006900791049108480949A3
:10361C0053F8042B0591006802A9019300F092F96C
:10362C000022029B1A701CB05DF804EB03B07047CB
:10363C00180000200802FFFF03460244934200D109
:10364C00704703F8011BF9E7014B1868704700BF7E
:10365C001800002070B500260C4D0D4C641BA410F6
:10366C00A64209D100F078FC00260A4D0A4C641BD6
:10367C00A410A64205D170BD55F8043B98470136FD
:10368C00EEE755F8043B98470136F2E7F43F0008A3
:10369C00F43F0008F43F0008F83F000870477047FB
:1036AC0038B50546002940D051F8043C0C1F002BBE
:1036BC00B8BFE41800F0DEF81C4A136833B9636035
:1036CC0014602846BDE8384000F0DAB8A34208D9A7
:1036DC00206821188B4201BF19685B6809182160AA
:1036EC00EDE71A465B680BB1A342FAD91168501882
:1036FC00A0420BD120680144501883421160E0D1E4
:10370C0018685B68084410605360DAE702D90C2330
:10371C002B60D6E7206821188B4201BF19685B68C3
:10372C000918216063605460CBE738BD300300207A
:10373C0070B50F4E0C463168054611B900F0AAFB66
:10374C0030602146284600F0A5FB431C03D14FF006
:10375C00FF34204670BDC41C24F00304A042F8D0F2
:10376C00211A284600F096FB0130F2D1EFE700BF9A
:10377C002C0300202DE9F843CD1C25F0030508355A
:10378C000C2D38BF0C25002D064601DBA94204D9AF
:10379C000C2333600020BDE8F883DFF8D48000F000
:1037AC0069F8D8F800301C4644BB29463046FFF770
:1037BC00BFFF431C044658D1D8F800402746002FC1
:1037CC0043D1002C4BD023683946304604EB030917
:1037DC0000F060FB814542D1216830466D1A2946C4
:1037EC00FFF7A6FF01303AD023682B442360D8F8AA
:1037FC0000305A6862BBC8F800700FE02268521B98
:10380C0020D40B2A17D96119A342256018BF59601F
:10381C00636808BFC8F8001062514B60304600F076
:10382C002FF804F10B00231D20F00700C21A1CBF57
:10383C001B1AA350AFE76268A3420CBFC8F8002064
:10384C005A60EBE723466468AEE73C467F68B6E710
:10385C001A465B68A342FBD100235360DEE70C23BE
:10386C003046336000F00CF894E70560D6E700BFF3
:10387C00300300200148FFF711BF00BF28030020D0
:10388C000148FFF70CBF00BF280300202DE9F047CB
:10389C001F468E688246BE420C4690460B682DD859
:1038AC00B1F90C2012F4906F26D06569096905EB0B
:1038BC004505A3EB010905EBD5757B1C4B446D103D
:1038CC009D4238BF1D46530527D52946FFF752FFA9
:1038DC00064660B34A46216900F0FAFAA38923F43C
:1038EC00906343F08003A38126614E4426603E46DC
:1038FC006561A5EB0905A560BE4200D93E4632467E
:10390C004146206800F0ACFA0020A3689B1BA36022
:10391C00236833442360BDE8F0872A4600F0E6FABA
:10392C0006460028E0D150462169FFF7B9FE0C236A
:10393C00CAF80030A3894FF0FF3043F04003A38155
:10394C00E9E700002DE9F04F98468B8907461B06E6
:10395C000D4614469DB010D50B6973B94021FFF785
:10396C0009FF2860286130B90C233B604FF0FF3011
:10397C001DB0BDE8F08F40236B6100230993202319
:10398C008DF8293030234FF00109CDF80C80DFF889
:10399C0098818DF82A3023469A4613F8012B0AB1E8
:1039AC00252AF9D1BAEB040B0BD05B4622462946EB
:1039BC003846FFF76BFF013000F0A780099A5A4494
:1039CC0009929AF80030002B00F09F8000234FF0F2
:1039DC00FF32CDE905230AF1010A049307938DF810
:1039EC0053301A935446052214F8011B4E4800F02C
:1039FC0061FA049AD8B9D00644BF20238DF853300D
:103A0C00110744BF2B238DF853309AF800302A2B22
:103A1C0015D0544600204FF00A0C079A214611F895
:103A2C00013B303B092B4BD9B0B1079214E0A0EB12
:103A3C00080309FA03F31343A2460493D2E7039B4A
:103A4C00191D1B680391002BBBBF5B4242F00202A5
:103A5C0007930793B8BF049223782E2B0AD163786F
:103A6C002A2B32D1039B02341A1D1B68039243EAA2
:103A7C00E3730593DFF8B4A003225046217800F0DD
:103A8C0019FA38B14022049BA0EB0A008240134380
:103A9C000134049314F8011B062225488DF82810D4
:103AAC0000F008FA002836D0224B1BBB039B0733CF
:103ABC0023F0070308330393099B334409936AE704
:103ACC000C4601200CFB0232A8E700234FF00A0C35
:103ADC00194601340593204610F8012B303A092A77
:103AEC0003D9002BC6D00591C4E7044601230CFB77
:103AFC000121F0E703AB00932A4638460E4B04A98C
:103B0C00AFF30080421C0646D6D1AB895B063FF56D
:103B1C002DAF09982CE703AB00932A463846064B89
:103B2C0004A900F07DF8EDE7BE3F0008C43F000893
:103B3C00C83F000800000000993800082DE9F04744
:103B4C00164698468A680B6907469342B8BF1346D7
:103B5C00336091F843200C46DDF820900AB1013314
:103B6C0033602368990642BF33680233336025689B
:103B7C0015F0060506D104F1190AE36832689B1AA0
:103B8C00AB422BDC94F843302268003B18BF012376
:103B9C00920630D44146384604F14302C8470130FE
:103BAC0023D02368226903F00603042B14BF0025DD
:103BBC0033684FF0000608BFE56804F11A0408BF2B
:103BCC00ED1A54F8123C08BF25EAE5759342C4BFC0
:103BDC009B1AED18B5421AD1002008E00123524679
:103BEC0041463846C847013003D14FF0FF30BDE89D
:103BFC00F0870135C1E73020E11881F843005A1CE9
:103C0C0094F845102244023382F84310C2E7012392
:103C1C00224641463846C8470130E6D00136D9E73E
:103C2C002DE9FF470F7E9146782F80460C469A4629
:103C3C000C9E01F1430207D8622F0AD8002F00F026
:103C4C00D380582F00F0BA8004F1420684F84270F9
:103C5C003AE0A7F16303152BF6D801A151F823F034
:103C6C00C53C0008D93C0008553C0008553C0008F0
:103C7C00553C0008553C0008D93C0008553C000850
:103C8C00553C0008553C0008553C0008DB3D00083D
:103C9C00033D0008953D0008553C0008553C0008C4
:103CAC00FD3D0008553C0008033D0008553C00084C
:103CBC00553C00089D3D000833681A1D1B68326096
:103CCC0004F1420684F8423001239EE033682068F8
:103CDC00191D3160060601D51D6803E04506FBD5AC
:103CEC00B3F90050002D03DA2D236D4284F84330D4
:103CFC000A23594811E021683368080653F8045B1D
:103D0C0002D4490648BFADB26F2F336014BF0A23EB
:103D1C0008235148002184F843106668002EA8BF80
:103D2C002168A660A4BF21F0040121600DB9002E0A
:103D3C004BD01646B5FBF3F103FB1157C75D06F8E4
:103D4C00017D2F46BB420D46F4D9082B0BD12368BD
:103D5C00DF0708D5236961689942DEBF302306F876
:103D6C00013C06F1FF36921B22614B462146404630
:103D7C00CDF800A003AAFFF7E1FE01304AD14FF0C5
:103D8C00FF3004B0BDE8F087236843F020032360C4
:103D9C007827324884F84570236831681F0651F83B
:103DAC00045B02D45F0648BFADB23160D90744BF93
:103DBC0043F0200323601DB11023ABE72648E9E74D
:103DCC00236823F020032360F6E71646BDE733682B
:103DDC002568181D616930602E061B6801D51960B5
:103DEC0002E06806FBD51980002316462361BCE768
:103DFC00336800211A1D32601E686268304600F07C
:103E0C0059F808B1801B606063682361002384F853
:103E1C004330AAE73246494640462369D047013031
:103E2C00ADD023689B0713D4E068039B9842B8BFBE
:103E3C001846A6E70123324649464046D047013092
:103E4C009DD00135E36803995B1AAB42F2DCEBE7DA
:103E5C00002504F11906F5E7CF3F0008E03F000804
:103E6C00884210B501EB020402D98442234607D8DC
:103E7C00431EA14208D011F8012B03F8012FF8E7DB
:103E8C00014602448A4200D110BD13F8014D02F8DC
:103E9C00014DF7E738B50023054D044608462B6065
:103EAC00FCF7F0FD431C02D12B6803B1236038BD35
:103EBC0024030020034610B5C9B2024493421846AD
:103ECC0001D1002003E0047801338C42F6D110BDFF
:103EDC000A44914200F1FF3300D1704710B511F83C
:103EEC00014B914203F8014FF9D110BD2DE9F0417E
:103EFC00804615460C4621B91146BDE8F041FFF746
:103F0C0039BC2AB9FFF7CCFB00242046BDE8F08170
:103F1C0000F01AF88542064602D8B5EB500FF4D8DB
:103F2C0029464046FFF726FC07460028ECD0B54250
:103F3C002A46214628BF3246FFF7CAFF2146404693
:103F4C00FFF7AEFB3C46E0E751F8043C181F002B92
:103F5C00BCBF0B58C0187047F8B500BFF8BC08BC04
:103F6C009E467047F8B500BFF8BC08BC9E4670472B
:103F7C00536F2063686F2074726F6E673A00000095
:103F8C003330000025640000000000000000000039
:103F9C0001020304060708090000000001020304E3
:103FAC0002030405060708090A0B0C0D0E0F10106E
:103FBC000102232D302B2000686C4C006566674590
:103FCC004647003031323334353637383941424385
:103FDC004445460030313233343536373839616236
:083FEC0063646566000000003B
:043FF400310100088F
:043FF8000D010008AF
:103FFC008400002001021E1E1EF0000000127A0038
:10400C0010000000010000001C0000200000000057
:10401C00EC01002054020020BC0200200000000033
:10402C000000000000000000000000000000000084
:10403C000000000000000000000000000000000074
:10404C000000000000000000000000000000000064
:08405C0000000000000000005C
:0400000508000B09DB
:00000001FF
